:020000040800F2
:1000000048060020D5000008F90200089502000803
:1000100000000000000000000000000000000000E0
:1000200000000000000000000000000019030008AC
:100030000000000000000000FB020008C1030008EF
:100040000501000805010008050100080501000878
:100050000501000805010008050100080501000868
:100060000000000005010008050100080501000866
:10007000E10100080501000805010008000000007A
:100080000501000805010008000000000501000846
:100090000501000805010008050100080501000828
:1000A0000501000805010008050100080501000818
:1000B0000501000805010008000000000501000816
:1000C0000348854600F07AF80048004721040008FC
:1000D000480600200C4880F308880C480168090E87
:1000E0000B4A914205D10B480B4901600B480C4962
:1000F00001600C4880470C480047FEE7FEE7FEE73A
:10010000FEE7FEE7FEE700004806002004000000CE
:100110001F00000018100240010000000000014014
:1001200000000000C5030008C100000870B50446C7
:10013000002903D000202022012310E0002801D054
:100140000020C043C046C0460DE02546D5408D4244
:1001500005D30D469540641B1D4695404019154634
:10016000521E002DF1DC214670BD000070B5002547
:1001700004462E46002911D0002C01DA0125444204
:10018000002901DA012649422046FFF7CFFFB54298
:1001900000D04042002D00D0494270BD002C02DA50
:1001A0000121C90702E0002C00DD03490846C046D2
:1001B000C046214670BD0000FFFFFF7F064C0125B1
:1001C000064E05E0E36807CC2B430C3C98471034FF
:1001D000B442F7D3FFF778FF3C1300085C13000824
:1001E00010B501204405204600F00EF8002806D086
:1001F000204600F005F800F011FE00F0CBFA10BD2B
:10020000054908607047C046034909680140481E17
:10021000814108467047C04614040140F0B50A68A1
:1002200000231C4614E003269E400768B74307607E
:100230009D4007682F430760C568B543C560CD7909
:100240009D40C6682E43C6609B1C641C102C1CD0AD
:100250001546E540ED07F7D00D796E1E012EE2D868
:1002600003269E408768B74387604E799E40876823
:10027000374387600126A6408788B74387808E79F9
:10028000A640878837438780CDE7F0BD018570475A
:10029000816170477047000010B5164C022806D0E7
:1002A000012101280CD12046FFF7F0FF0BE00421CB
:1002B0002046FFF7EDFF01212046FFF7E9FF10BDC3
:1002C0002046FFF7E5FF04212046FFF7DFFF10BDC2
:1002D00080B582B00121880400F010F8052000905C
:1002E0000348019003486946FFF798FF02B080BDBC
:1002F000010300000004004870477047054A0029C8
:1003000003D0116801431160704711688143116087
:100310007047C04614100240704780B500F002F8E4
:1003200080BD000070B582B0002401940094224882
:10033000021F1168012319431160156802210D4045
:100340000095019D6D1C0195009D002D04D1052592
:100350002D03019EAE42F0D11568AD0701D4009483
:1003600000E00093009C012C23D1144C1125256042
:1003700004680460046804607F24E4030568A543FE
:1003800005602124E4030568254305601B06146805
:100390001C43146013689B01FCD5026803239A4335
:1003A000026002680A43026001680C220A40082ABF
:1003B000FAD102B070BDC0460410024000200240D5
:1003C0007047000080B51348026801210A430260AB
:1003D0004268114B134043600268104B13400360A6
:1003E0008A040368934303603F22120443689343E3
:1003F0004360C26A0F239A43C262FF225432036BE6
:1004000093430363426B8A43426300218160FFF799
:1004100084FF80BD001002400CB8FFF8FFFFF6FE1D
:10042000FFF756FF00F06CFC00F064FCFFF734FFB0
:10043000FAE700003F202B49486200200862084686
:10044000006A01210843274908622748C861084615
:10045000C069012108432349C861244803210902D6
:100460004018C068000A00022049032212028918BD
:10047000C8601E4811464018C068802108431B49C7
:100480008918C860012000031849086018480068EE
:100490000121490588431649086008464068012142
:1004A000490588431249486008460068012149050A
:1004B00008430F49086008468068012149058843C0
:1004C0000B4988600846C0680121490588430849EE
:1004D000C8600846806801214905084304498860CE
:1004E00070470000000001400906000000E100E044
:1004F00000040140C100074A51580968C200054B79
:10050000D218137903229A401143C200014B9A5822
:10051000116070476C1200081B481C490978405C48
:10052000C0001B49085800681749184A1278895CAE
:10053000C900174A89180A79032191408843124952
:10054000124A1278895CC900114A515808600E4855
:100550000E490978405CC0001146085800680A49F5
:100560000A4A1278895CC900094A89180A79012166
:10057000914008430449054A1278895CC900044A3D
:100580005158086070470000301300082F00002009
:100590006C1200080F4840690121490408430D49C5
:1005A00048610846406901218904084309494861B6
:1005B0000846406901218905084306494861002031
:1005C000C0430921C90688600349886003498860DF
:1005D000704700000010024000040048001400486A
:1005E00010B504460D4800680C2108430B4908600B
:1005F0002046FFF77FFF0A48406818210843084952
:10060000486008460068012109060843044908605B
:1006100000F008F8204600F06BFD10BD0004004813
:1006200000400240174880690121890408431549A8
:100630008861682014490883052013492031088007
:100640000020114948621049203108810F481049A3
:100650000978405C401E0C49C8620C490C4A12786B
:10066000885CC10F09184910074A516309480649B7
:10067000403188801046808A0121084311468882D3
:100680007047000000100240004801403700002081
:100690003A0000200180000011488069012189048E
:1006A00008430F49886168200E49088305200D49D9
:1006B0002031088000200B4948620A492031088116
:1006C00011200849C862092048630748054940319C
:1006D00088800448808A0121084302498882704743
:1006E00000100240004801400180000003480088DB
:1006F0004008400001490880704700000048014060
:100700000020044948620846008801210843014945
:1007100008807047004801400D48C0690221084325
:100720000B49C8610B48008840084000094908800F
:100730000948C86200200749203108815020054936
:100740000881012008830349203108807047000098
:100750000010024000040040A08C00000348008804
:100760004008400001490880704700000004004034
:1007700000200749486208460088012108430449CF
:1007800008800846808A0121084301498882704711
:1007900000040040F0B58BB0FE480078002874D00B
:1007A000FD480078401CFC49087000200190F94980
:1007B000087002900120049000200590002600900F
:1007C000002426E26000F5490968095A68468183D9
:1007D000808B002809DD6A46918BF14A127810035C
:1007E000FFF7A4FC6A46908302E0002069468883F4
:1007F00000250CE00C206043EA49096840186900B4
:10080000415A681C400007AA1152681CC5B2062D47
:10081000F0DBE148007814280CDA6846818BC08B45
:10082000814202DD6846818BC183002108A8C17026
:10083000C171D5E16E20D84908700120A040DA4985
:1008400009680840002856D103906846818BC08B08
:10085000814210DB6846818BC08B081A80B20390FE
:100860000398FF2801DDFF2003900399C8B22146B9
:1008700000F0C6FCB4E16846818B008C814205DD46
:100880006846818B008C0F1A04E00AE26846018CEE
:10089000808B0F1A6946088CC117490E0918C911B7
:1008A000B94201D2022F06D208A80079401CC1B279
:1008B00008A8017102E0002008A908716846C18BF0
:1008C000808B814205DD08A80079B8490978884203
:1008D0000ADC6846C18B808B8142AADA08A80079BD
:1008E000B34909788842A4DD6846818BC183002121
:1008F00008A8017174E108A88178407A81427DDD01
:10090000002108A8017181714171C078401CC1B2F9
:1009100008A8C170C078A7490978884208DDA548B1
:10092000017808A8C170007A0121084308A908725B
:1009300008A8007A02210840002814D008A880786E
:100940009D49097888420ED108A8C079401CC1B2DF
:1009500008A8C171C07999490978884203DD974890
:10096000007808A9C87108A8807893490978884256
:100970002BD19148007892490978401A08A9497A00
:10098000884222DD8F4909788D4A12785143084602
:100990000A21FFF7EBFB88490978884215DA08A895
:1009A000C079401CC1B208A8C171C07983490978D7
:1009B000884232DD08A8017A0220014308A80172AA
:1009C0007E48017808A8C17127E008A8C0790028EE
:1009D0000DDD08A880787849097888421DD008A8DC
:1009E000C079401EC1B208A8C17116E006E008A98E
:1009F000087A0221884308A908720EE008A8C07886
:100A0000002806DD08A8C078401EC1B208A8C17041
:100A100003E0002108A80172C17108A9487A897809
:100A2000C20F12185210914203DD0198401CC0B24F
:100A30000190002108A881706846818BC08B81429B
:100A400029DB6846818BC08B081A80B2039003981B
:100A5000FF2801DDFF2003900398C1B208A8817030
:100A60008078B04203DD069608A8867807E008A8DB
:100A700081780698814202DD08A88078069008A84F
:100A80004079401CC1B208A8417108A98878214664
:100A900000F0B6FB05E008A88079401CC1B208A8A8
:100AA00081716846818B008C814204DD6846818BB0
:100AB000008C0F1A03E06846018C808B0F1A694680
:100AC000088CC117090E09180912B94203D23E4910
:100AD00009788F4206D208A80079401CC1B208A844
:100AE000017102E0002008A9087108A8807937493F
:100AF0000978884208DD6846C08B401E81B268468E
:100B0000C183002108A8817108A84079304909787B
:100B1000884208DD6846C08B401C81B26846C183AC
:100B2000002108A841716846818BC08B814205DB9A
:100B300008A800791D49097888420ADC6846818B3B
:100B4000C08B81420BDA08A80079194909788842DC
:100B500005DD6846818BC183002108A8017108A8C2
:100B6000007AC007C00F002803D0049905984018E8
:100B7000059008A8007A02210840002802D0601CD5
:100B8000C0B2029008A8C079002824DC08A8C07868
:100B900000281FE024000020250000201000002075
:100BA0003513000820000020080000202E13000844
:100BB0002D130008391300082C0000203A130008F8
:100BC0002D00002038130008340000202C130008EA
:100BD0002F13000804DD0120A04000990843009075
:100BE0006846818B018401250CE0680007A9095A39
:100BF0000C2060432C4A12688218681E4000115273
:100C0000681CC5B2072DF0DB049840000490601CFE
:100C1000C4B226480078844200DAD3E5244806703E
:100C200024490698087024490298087023490598B9
:100C3000086023490978019888420DDD0020C043EF
:100C40002049086000201C4908701C4908601849A8
:100C5000087012201C4908701B480078142820DDF9
:100C6000184900980860002417E018480068005DE3
:100C7000002810DD16480068015D012088401149F8
:100C8000096808430F4908600020104909680855A1
:100C90000F4909680855601CC4B20E4800788442A8
:100CA000E3DB0BB0F0BD0000200000203213000891
:100CB0002C0000202D00002026000020280000200D
:100CC0003413000808000020250000200000002048
:100CD0000400002033130008182800DB70470C22A2
:100CE0004243034B1B68D218D17200BFF6E70000E5
:100CF00020000020014800787047000026000020F6
:100D000010B53748C0690121090708433449C86153
:100D1000084680690121084331498861FFF73AFCA0
:100D200000F010FAFFF7B8FCFFF7F6FCFFF782FBC4
:100D300011202C4908701220487013208870092057
:100D400029490870294909780C225143084600F0C6
:100D500021FA2749086025490978480000F01AFA65
:100D6000244908602449087800F014FA23490860EF
:100D70002149087800F00EFA21490860002406E0B5
:100D80002048015D2046FFF7A7FF601CC4B217484A
:100D900000788442F4DB1C480178012088401B491C
:100DA00009680840002809D009200F490870FF2071
:100DB0001749087000201749087008E001200A4907
:100DC00008700020124908700120124908700020A4
:100DD000C0430E49086010490878FFF701FC10BDB8
:100DE00000100240370000203500002032130008B8
:100DF0002000002010000020331300080000002015
:100E000004000020361300082F00002008000020F6
:100E10003A0000200C00002030130008FEB59E4868
:100E2000008A02210840022805D09C48C069490375
:100E3000084088427ED19848008A02210840022852
:100E400003D19548406B84B200E00024002C72DD91
:100E500093480578934807789348808A022188430D
:100E600091498882084600680C2188438E490860B1
:100E700008460068042108438B490860FFF74CFBD3
:100E800088480078401C8749087008460078022886
:100E900001DD00200870FFF729FCFFF75FFC8348A5
:100EA0004068182188438149486008460068C00EA0
:100EB000C0060860084640684008400048607C481A
:100EC000C06A80B202907B480078401C7949087063
:100ED0000846007878490978884205DA7749704AE7
:100EE0001278885CFFF77CFB0299491C2046FFF7CB
:100EF0003DF984B272480088001971490880714830
:100F00000088844205DD6F480088201A80B2009076
:100F100004E06C480088001B80B2009078006A49A9
:100F2000095A0098814209DD7900674A00985052B9
:100F3000780001E0AEE0A7E064490C525D4800781B
:100F40005D49097888427DDB6148007800280ED130
:100F50005B4800885F49884209DA574800782728AB
:100F600005DA55480078C01C5349087085E0002018
:100F70005049087056480078012804D16800564945
:100F800009680C5230E0514800885049498888422D
:100F900008DD4E48008801904C4840884B49088045
:100FA000019848804948408848498988884208DD36
:100FB00046484088019045488088444948800198C7
:100FC00088804248008841494988884206DD3F4878
:100FD00001886800404A1268115205E03B48418888
:100FE00068003D4A12681152002606E00020C04306
:100FF0007100354A5052701CC6B2032EF6DB002039
:101000002F49088026480078401C2549087008466A
:10101000007832490978884205DB002020490870B1
:1010200001202F4908701E4A12780C235A432D4B79
:101030001B68995A2C4A12781003FFF777F8214958
:10104000088000E01FE00020214908701448017862
:1010500001208840254909680840002807D101205F
:10106000154908700F4908701949087005E00920F2
:101070001149087000200B4908701049084A12787D
:10108000885CFFF7ADFAFEBD0C49054A1278885C12
:10109000FFF7A6FA00BFF6E7000400400000014099
:1010A0002F0000203A0000200004004800400240C9
:1010B000004801402E0000203500002030130008B9
:1010C00032000020300000201A0000201400002010
:1010D0000C000020B80B00001000002032130008A4
:1010E0002400002020000020351300080800002004
:1010F00000B502461248006801219140084310499A
:10110000086008464068182188430D494860084631
:101110004068012108430A494860084640680821A0
:10112000084307494860012080F3108800BFFFF79B
:10113000E7FAFFF71DFB002080F3108800BF00BD19
:101140000040024009484069012109060843074957
:101150004861002006490860012000060860084632
:101160004068182108430249486070470010024057
:101170000040024002E008C8121F08C1002AFAD14C
:1011800070477047002001E001C1121F002AFBD107
:1011900070470000F0B50B30C108C900144F00269D
:1011A000144A0FE003688B420BD38B4205D95C1ABB
:1011B0004318456830C3083B00E04368136002C031
:1011C00004E0021D10680028ECD13046002803D14D
:1011D0003868002801D00020F0BD064A064810609B
:1011E000064A121AD208D20044C001203860D7E75C
:1011F000400000203C0000204C000020480200205D
:1012000030B502460B46002124E0154C2468645C8E
:1012100094421DDA134C2478641EE0B20FE0441EA1
:101220000F4D2D682C5D0E4D2D682C54441E0E4D17
:101230002D682C5D0C4D2D682C54441EE0B2884264
:10124000EDDC074C24686254074C2468635405E0C5
:101250004C1CE1B2034C2478A142D6DB00BF30BD68
:1012600000000020331300080400002000000048A4
:1012700000000000000000480200000000000048DC
:1012800004000000000000480600000000000048C4
:1012900008000000000000480A00000000000048AC
:1012A0000C000000000000480E0000000004004890
:1012B0000000000000040048040000000004004892
:1012C000140000000004004816000000000400485C
:1012D00018000000000400481A0000000004004844
:1012E0001C000000000400481E0000000000004830
:1012F000100000000000004812000000000000483C
:101300001400000000000048160000000000004823
:1013100018000000000000481A00000000140048F7
:101320000C000000001400480E000000323232327F
:101330000A0B0204085014141E0404006013000871
:10134000000000204800000074110008A8130008E5
:101350004800002000060000841100080000000082
:10136000000000000000000000000000000000007D
:10137000000000000000000000000000000000006D
:10138000000000000000000000000000000000005D
:10139000000000000000000000000000000000004D
:0813A000000000000000000045
:04000005080000C12E
:00000001FF
