:020000040800F2
:1000000048060020D5000008B9020008590200087F
:1000100000000000000000000000000000000000E0
:10002000000000000000000000000000D9020008ED
:100030000000000000000000BB020008810300086F
:100040000501000805010008050100080501000878
:100050000501000805010008050100080501000868
:100060000000000005010008050100080501000866
:100070000501000805010008050100080000000056
:100080000501000805010008000000000501000846
:100090000501000805010008050100080501000828
:1000A0000501000805010008050100080501000818
:1000B0000501000805010008000000000501000816
:1000C0000348854600F07AF800480047E10300083D
:1000D000480600200C4880F308880C480168090E87
:1000E0000B4A914205D10B480B4901600B480C4962
:1000F00001600C4880470C480047FEE7FEE7FEE73A
:10010000FEE7FEE7FEE700004806002004000000CE
:100110001F00000018100240010000000000014014
:100120000000000085030008C100000870B5044607
:10013000002903D000202022012310E0002801D054
:100140000020C043C046C0460DE02546D5408D4244
:1001500005D30D469540641B1D4695404019154634
:10016000521E002DF1DC214670BD000070B5002547
:1001700004462E46002911D0002C01DA0125444204
:10018000002901DA012649422046FFF7CFFFB54298
:1001900000D04042002D00D0494270BD002C02DA50
:1001A0000121C90702E0002C00DD03490846C046D2
:1001B000C046214670BD0000FFFFFF7F064C0125B1
:1001C000064E05E0E36807CC2B430C3C98471034FF
:1001D000B442F7D3FFF778FFFC1700081C1800089B
:1001E000F0B50A6800231C4614E003269E40076809
:1001F000B74307609D4007682F430760C568B54354
:10020000C560CD799D40C6682E43C6609B1C641CAA
:10021000102C1CD01546E540ED07F7D00D796E1E69
:10022000012EE2D803269E408768B74387604E7947
:100230009E408768374387600126A6408788B7437A
:1002400087808E79A640878837438780CDE7F0BDC9
:1002500001857047816170477047000010B5154CEB
:10026000022807D0012101280AD12046FFF7F0FF1C
:10027000022109E002212046FFF7EAFF012103E005
:100280002046FFF7E7FF02212046FFF7E3FF10BDFE
:1002900080B582B00121880400F010F8032000909E
:1002A0000348019003486946FFF79AFF02B080BDFA
:1002B000010300000004004870477047054A002908
:1002C00003D01168014311607047116881431160C8
:1002D0007047C04614100240704780B500F002F825
:1002E00080BD000070B582B00024019400942248C3
:1002F000021F1168012319431160156802210D4086
:100300000095019D6D1C0195009D002D04D10525D2
:100310002D03019EAE42F0D11568AD0701D40094C3
:1003200000E00093009C012C23D1144C1225256081
:1003300004680460046804607F24E4030568A5433E
:1003400005603924E4030568254305601B0614682D
:100350001C43146013689B01FCD5026803239A4375
:10036000026002680A43026001680C220A40082AFF
:10037000FAD102B070BDC046041002400020024015
:100380007047000080B51348026801210A430260EB
:100390004268114B134043600268104B13400360E6
:1003A0008A040368934303603F2212044368934323
:1003B0004360C26A0F239A43C262FF225432036B26
:1003C00093430363426B8A43426300218160FFF7DA
:1003D00084FF80BD001002400CB8FFF8FFFFF6FE5E
:1003E000FFF756FF00F092FD00F02AFE00F0D8FA69
:1003F00000F086FDFFF732FFF6E700003F200949D5
:100400004862002008620846006A01210843054945
:1004100008620548C8610846C069012108430149CE
:10042000C861704700000140090600000148024908
:10043000C8617047050600000000014001480249FC
:10044000C8617047090600000000014001480249E8
:10045000C86170470706000000000140C100074A5C
:1004600051580968C200054BD218137903229A40EB
:100470001143C200014B9A58116070472C170008B5
:100480001B481C490978405CC0001B49085800689B
:100490001749184A1278895CC900174A89180A79DD
:1004A0000321914088431249124A1278895CC9009D
:1004B000114A515808600E480E490978405CC00046
:1004C0001146085800680A490A4A1278895CC9002E
:1004D000094A89180A790121914008430449054ACB
:1004E0001278895CC900044A5158086070470000BE
:1004F000F01700082F0000202C1700080E48406954
:100500000121490408430C4948610846406901211A
:1005100089040843084948610020C0430921C906ED
:1005200088600649886006498860302005498860EF
:1005300005480649886070470010024000040048E2
:1005400000080048000C00480FFF0000001400489D
:1005500010B5044649480078432870DC2046E1176E
:10056000490F0918C910002904D0012923D00229F4
:1005700063D140E00920C006006803210902084356
:100580000921C90608602046FFF768FF3C4840681B
:10059000182108433A4948600846006801210906C5
:1005A00008433749086000F0E9F8FFF73FFF2046AD
:1005B00000F046FF41E03348006803210906084384
:1005C000304908602046FFF749FF2D484068032165
:1005D000C90208432A4948600846006801214906C3
:1005E00008432749086000F0FBF8FFF727FF204683
:1005F00000F054FF21E00920C006006803218906AD
:1006000008430921C90608602046FFF727FF1C4858
:1006100040680321C9040843194948600846006836
:100620000121890608431649086000F00DF9FFF71B
:100630000DFF204600F062FF00BF1DE0FFE71148FC
:1006400000680321090608430E4908602046FFF7A9
:1006500005FF0B4840680321C90208430849486068
:10066000084600680121490608430549086000F072
:100670000BF8204600F074FF10BD0000360000208B
:1006800000400240000400481748806901214904E5
:1006900008431549886168201449088305201349D7
:1006A000203108800020114948621049203108811A
:1006B0000F4810490978405C401E0C49C8620C493B
:1006C0000C4A1278885CC10F09184910074A516317
:1006D00009480649403188801046808A0121084334
:1006E000114688827047000000100240004401401B
:1006F000370000203A000020018000001148806986
:100700000121490408430F49886168200E49088384
:1007100005200D492031088000200B4948620A4914
:100720002031088111200849C86209204863074820
:100730000549403188800448808A012108430249E4
:100740008882704700100240004401400180000090
:1007500003480088400840000149088070470000B5
:1007600000440140002004494862084600880121F5
:100770000843014908807047004401404020144963
:1007800088806820088305201149203108800020D6
:100790000F4948620E49203108810E480E490978F8
:1007A000405C401E0A49C8620A490B4A1278885CBC
:1007B000C10F09184910064A5163084804494031DD
:1007C00088801046808A012108431146888270473C
:1007D000002C0140370000203A000020018000007A
:1007E0005020154988800D20C002088350201249EE
:1007F000203108800020104948620F4920310881CB
:100800000E480F490978405C401E0B49C8620B49ED
:100810000B4A1278885CC10F09184910064A916387
:1008200008480549403188801046808A01210843E4
:100830001146888270470000002C014037000020DC
:100840003A0000200180000060201549888068205F
:1008500088830520000212492031088000201049B9
:1008600048620F49203108810E480F490978405CE1
:10087000401E0B49C8620B490B4A1278885CC10FB5
:1008800009184910064AD163084805494031888053
:100890001046808A01210843114688827047000073
:1008A000002C0140370000203A00002001800000A9
:1008B0000E4880690121C90208430C498861002063
:1008C0000B4948620A492031088111200849C86251
:1008D00009204863886307480549403188800448F7
:1008E000808A012108430249888270470010024033
:1008F000002C0140018000000348008840084000AF
:100900000149088070470000002C01400020044984
:100910004862084600880121084301490880704761
:10092000002C01400D48C069022108430B49C861F1
:100930000B48008840084000094908800948C862FF
:1009400000200749203108815020054908810120F5
:1009500008830349203108807047000000100240DE
:1009600000040040A08C00000348008840084000BC
:10097000014908807047000000040040002007493A
:100980004862084600880121084304490880084657
:10099000808A012108430149888270470004004091
:1009A000F0B58BB0FE480078002874D0FD48007880
:1009B000401CFC49087000200190F9490870029021
:1009C000012004900020059000260090002426E2DB
:1009D0006000F5490968095A68468183808B0028C0
:1009E00009DD6A46918BF14A12781003FFF79EFBEE
:1009F0006A46908302E000206946888300250CE067
:100A00000C206043EA49096840186900415A681C93
:100A1000400007AA1152681CC5B2062DF0DBE14860
:100A2000007814280CDA6846818BC08B814202DD85
:100A30006846818BC183002108A8C170C171D5E1CE
:100A40006E20D84908700120A040DA4909680840A2
:100A5000002856D103906846818BC08B814210DB01
:100A60006846818BC08B081A80B203900398FF28D8
:100A700001DDFF2003900399C8B2214600F020FE5B
:100A8000B4E16846818B008C814205DD6846818B2C
:100A9000008C0F1A04E00AE26846018C808B0F1A62
:100AA0006946088CC117490E0918C911B94201D20B
:100AB000022F06D208A80079401CC1B208A8017113
:100AC00002E0002008A908716846C18B808B814232
:100AD00005DD08A80079B849097888420ADC68462B
:100AE000C18B808B8142AADA08A80079B3490978C2
:100AF0008842A4DD6846818BC183002108A801716A
:100B000074E108A88178407A81427DDD002108A83F
:100B1000017181714171C078401CC1B208A8C170D7
:100B2000C078A7490978884208DDA548017808A857
:100B3000C170007A0121084308A9087208A8007A48
:100B400002210840002814D008A880789D4909781F
:100B500088420ED108A8C079401CC1B208A8C17152
:100B6000C07999490978884203DD9748007808A937
:100B7000C87108A880789349097888422BD1914898
:100B8000007892490978401A08A9497A884222DDFA
:100B90008F4909788D4A1278514308460A21FFF798
:100BA000E5FA88490978884215DA08A8C079401C16
:100BB000C1B208A8C171C07983490978884232DD81
:100BC00008A8017A0220014308A801727E48017832
:100BD00008A8C17127E008A8C07900280DDD08A881
:100BE00080787849097888421DD008A8C079401ECD
:100BF000C1B208A8C17116E006E008A9087A02216E
:100C0000884308A908720EE008A8C078002806DD0D
:100C100008A8C078401EC1B208A8C17003E0002136
:100C200008A80172C17108A9487A8978C20F121800
:100C30005210914203DD0198401CC0B20190002186
:100C400008A881706846818BC08B814229DB684689
:100C5000818BC08B081A80B203900398FF2801DDB6
:100C6000FF2003900398C1B208A881708078B04239
:100C700003DD069608A8867807E008A8817806981C
:100C8000814202DD08A88078069008A84079401CBF
:100C9000C1B208A8417108A98878214600F010FD6A
:100CA00005E008A88079401CC1B208A88171684697
:100CB000818B008C814204DD6846818B008C0F1A89
:100CC00003E06846018C808B0F1A6946088CC117B7
:100CD000090E09180912B94203D23E4909788F4218
:100CE00006D208A80079401CC1B208A8017102E030
:100CF000002008A9087108A8807937490978884236
:100D000008DD6846C08B401E81B26846C183002161
:100D100008A8817108A8407930490978884208DD1F
:100D20006846C08B401C81B26846C183002108A878
:100D300041716846818BC08B814205DB08A8007930
:100D40001D49097888420ADC6846818BC08B814244
:100D50000BDA08A8007919490978884205DD684648
:100D6000818BC183002108A8017108A8007AC007FF
:100D7000C00F002803D0049905984018059008A8D2
:100D8000007A02210840002802D0601CC0B2029004
:100D900008A8C079002824DC08A8C07800281FE033
:100DA000240000202500002010000020F517000876
:100DB0002000002008000020EE170008ED170008B2
:100DC000F91700082C000020FA1700082D00002059
:100DD000F817000834000020EC170008EF1700088F
:100DE00004DD0120A0400099084300906846818BF3
:100DF000018401250CE0680007A9095A0C20604312
:100E00002C4A12688218681E40001152681CC5B234
:100E1000072DF0DB049840000490601CC4B2264803
:100E20000078844200DAD3E5244806702449069805
:100E300008702449029808702349059808602349DE
:100E40000978019888420DDD0020C04320490860E0
:100E500000201C4908701C490860184908701220BD
:100E60001C4908701B480078142820DD1849009898
:100E70000860002417E018480068005D002810DDB5
:100E800016480068015D012088401149096808433F
:100E90000F49086000201049096808550F49096882
:100EA0000855601CC4B20E4800788442E3DB0BB0E6
:100EB000F0BD000020000020F21700082C000020E8
:100EC0002D0000202600002028000020F417000834
:100ED0000800002025000020000000200400002061
:100EE000F3170008182800DB70470C224243034B1D
:100EF0001B68D218D17200BFF6E700002000002066
:100F000001480078704700002600002010B53C48DA
:100F1000C0690121090708433949C8610846806949
:100F20000121084336498861364800680002000EF6
:100F300035490870FFF7E2FA00F042FB32480078CA
:100F4000432802DCFFF7B4FC01E0FFF7D7FBFFF713
:100F5000E9FCFFF753FA11202C4908701220487061
:100F60001320887009202A4908702A4909780C2220
:100F70005143084600F06EFB27490860254909786F
:100F8000480000F067FB254908602549087800F013
:100F900061FB244908602249087800F05BFB224984
:100FA0000860002406E02148015D2046FFF79AFF13
:100FB000601CC4B2174800788442F4DB1C480178F6
:100FC000012088401B4909680840002809D00920F1
:100FD0000F490870FF201849087000201749087051
:100FE00008E001200A490870002013490870012018
:100FF000124908700020C0430E49086010BD00006F
:10100000001002400080FF1F360000203700002043
:1010100035000020F21700082000002010000020FA
:10102000F31700080000002004000020F617000855
:101030002F000020080000203A0000200C000020B3
:10104000FEB5E748008A02210840022805D0E5489D
:10105000C0694903084088427ED1E148008A0221E4
:101060000840022803D1DE48406B84B200E000242F
:10107000002C72DDDC480578DC480778DC48007815
:1010800043286BDCDB48D8490978405C08281EDA25
:101090000920C00600680321090288430921C90606
:1010A000086008460068FF21013108430921C9068C
:1010B0000860FFF7E5F9D048406818218843CE4919
:1010C0004860084640684008400048604DE0C94814
:1010D000C5490978405C10281CDAC848006803211B
:1010E00009068843C5490860084600688903084323
:1010F000C2490860FFF7C4F9BF4840680321C9022C
:101100008843BD4948600846406889158843BA4904
:1011100048602AE0B748B4490978405C182824DAC6
:101120000920C00600680321890688430921C906F1
:101130000860084600680121890608430921C9069C
:101140000860FFF79DF9AC4840680321C904884353
:10115000A9494860084602E040E139E11FE04068E3
:10116000012109048843A4494860A0480078401C34
:101170009E49087008460078022801DD00200870AA
:10118000FFF7BAFBFFF7F0FB9B480068C00EC006F4
:10119000994908609A48C06A80B202903AE097483C
:1011A00000680321090688439449086008460068DE
:1011B00089030843914908600846808A0121090390
:1011C00088438E498882FFF75BF988480078401C85
:1011D0008649087008460078022801DD0020087062
:1011E000FFF7B6FAFFF7C0FB834840680321C90246
:1011F00088438149486008460068C00EC006086000
:1012000008464068891588437B4948607D48C06A24
:1012100080B202907C480078401C7B4908700846E8
:1012200000787A490978884205DA72496E4A12785C
:10123000885CFFF78DF90299491C2046FEF796FF5E
:1012400084B2734800880019714908807148008889
:10125000844205DD6F480088201A80B2009004E0C7
:101260006C480088001B80B2009078006A49095AD7
:101270000098814206DD7900674A00985052780054
:1012800066490C52604800786049097888427DDBE5
:101290006348007800280ED15D4800886149884283
:1012A00009DA5A480078272805DA58480078C01C1F
:1012B0005649087085E00020534908705848007866
:1012C000012804D16800584909680C5230E053489D
:1012D000008852494988884208DD504800880190BA
:1012E0004E4840884D490880019848804B484088C6
:1012F0004A498988884208DD484840880190474823
:10130000808846494880019888804448008843493D
:101310004988884206DD414801886800424A1268CF
:10132000115205E03D48408869003F4A126850521A
:10133000002606E00020C0437100374A5052701C5E
:10134000C6B2032EF6DB002031490880264800781B
:10135000401C2549087008460078344909788842BD
:1013600005DB0020204908700120314908701E4A21
:1013700012780C235A432F4B1B68995A2E4A127825
:101380001003FEF7D3FE2349088000E01FE0002091
:1013900023490870144801780120884027490968CA
:1013A0000840002807D10120184908700F4908702B
:1013B0001B49087005E009201449087000200B49FA
:1013C00008700C49084A1278885CFFF7C1F8FEBD26
:1013D0000849054A1278885CFFF7BAF800BFF6E7BB
:1013E00000040040000001402F0000203A000020CF
:1013F00036000020F01700080040024000040048BA
:10140000002C0140004401402E0000203500002047
:1014100032000020300000201A00002014000020BC
:101420000C000020B80B000010000020F21700088C
:101430002400002020000020F517000808000020EC
:1014400010B50446144800680121A1400843124920
:10145000086008464068182188430F4948600846DC
:101460004068042108430C4948600846406801214F
:10147000084309494860084640680821084306496E
:101480004860012000F0E3F8FFF740FAFFF776FA32
:10149000002000F0DCF810BD0040024010B504460A
:1014A000154800680121A140084313490860084617
:1014B00040680321C90288430F49486008464068D4
:1014C000091508430C4948600846406889150843D7
:1014D0000949486008464068C914084306494860FD
:1014E000012000F0B4F8FFF711FAFFF747FA0020E7
:1014F00000F0ADF810BD00000040024010B50446F9
:10150000164800680121A1400843144908600846B4
:1015100040680321C9048843104948600846406870
:101520000121890408430D494860084640680121AB
:101530000904084309494860084640680121C90474
:10154000084306494860012000F081F8FFF7DEF902
:10155000FFF714FA002000F07AF810BD00400240B6
:1015600010B50446154800680121A14008431349FD
:101570000860084640680321C90288430F49486053
:1015800008464068091508430C4948600846406809
:10159000891508430949486008464068C91408434A
:1015A00006494860012000F052F8FFF7DBF8FFF72A
:1015B000E5F9002000F04BF810BD000000400240AB
:1015C000184840690121090608431649486100206E
:1015D0001549086008464068012109060843124978
:1015E000486012480078432813DC0846406802210E
:1015F00008430D49486008464068491508430A49B0
:10160000486008464068012149040843064948608B
:1016100006E00548406801214902884302494860C4
:1016200070470000001002400040024036000020D9
:1016300002E008C8121F08C1002AFAD1704770479B
:10164000002001E001C1121F002AFBD1704780F386
:1016500010887047F0B50B30C108C900144F002640
:10166000144A0FE003688B420BD38B4205D95C1AF6
:101670004318456830C3083B00E04368136002C06C
:1016800004E0021D10680028ECD13046002803D188
:101690003868002801D00020F0BD064A06481060D6
:1016A000064A121AD208D20044C001203860D7E797
:1016B000400000203C0000204C0000204802002098
:1016C00030B502460B46002124E0154C2468645CCA
:1016D00094421DDA134C2478641EE0B20FE0441EDD
:1016E0000F4D2D682C5D0E4D2D682C54441E0E4D53
:1016F0002D682C5D0C4D2D682C54441EE0B28842A0
:10170000EDDC074C24686254074C2468635405E000
:101710004C1CE1B2034C2478A142D6DB00BF30BDA3
:1017200000000020F317000804000020000000481B
:101730000000000000000048020000000000004817
:1017400004000000000000480600000000000048FF
:101750000A000000000000480C00000000000048E3
:101760000E000000000400480200000000040048D1
:1017700000000000000400480400000000040048CD
:101780001400000000040048160000000004004897
:101790001A000000000400481C000000000400487B
:1017A0001E0000000000004810000000000000487B
:1017B0001200000000000048140000000000004873
:1017C000160000000000004818000000000000485B
:1017D0001C000000000000481E000000000400483B
:1017E00006000000000400480800000032323232D7
:1017F0000A0B0204085014141E04040020180008E8
:10180000000000204800000030160008681800089A
:1018100048000020000600004016000800000000FC
:1018200000000000000000000000000000000000B8
:1018300000000000000000000000000000000000A8
:101840000000000000000000000000000000000098
:101850000000000000000000000000000000000088
:08186000000000000000000080
:04000005080000C12E
:00000001FF
