:020000040800F2
:1000000020060020D9000008BD06000831060008BF
:1000100000000000000000000000000000000000E0
:100020000000000000000000000000004708000879
:10003000000000000000000055070008A10A0008A9
:100040000901000809010008090100080901000868
:100050000901000809010008090100083903000826
:10006000000000000901000809010008090100085A
:10007000090100080901000809010008000000004A
:10008000090100080901000800000000890B0008B0
:100090000901000809010008090100080901000818
:1000A0000901000809010008090100080901000808
:1000B000090100080901000800000000090100080A
:1000C0000448854600F04AF80048004781150008BA
:1000D000C046C046200600200C4880F308880C4823
:1000E0000168090E0B4A914205D10B480B4901608A
:1000F0000B480C4901600C4880470C480047FEE75C
:10010000FEE7FEE7FEE7FEE7FEE700002006002030
:10011000040000001F000000181002400100000051
:100120000000014000000000CD0A0008C1000008E6
:1001300030B50B46014600202022012409E00D467F
:10014000D5409D4205D31D469540491B2546954007
:1001500040191546521E002DF1DC30BD064C01251C
:10016000064E05E0E36807CC2B430C3C984710345F
:10017000B442F7D3FFF7A8FFC8160008E816000836
:1001800007483F21416200210162026A01210A43BE
:100190000262044AC261C2690A43C2617047000038
:1001A000000001400906000070B5314D2878002894
:1001B00009D069780A2906D300262E4C6E70A178E2
:1001C000814201D02E7070BD20783A28FBD1607832
:1001D000A328F8D12E70A07BE17B0002081882B220
:1001E00000210846235C401C5918C0B289B20E2871
:1001F000F8D3914237D11F4DE0782835287002207E
:1002000068721E202872E07A6871A07A2871607B7B
:10021000E871207BA871607A6870207AA870E87015
:10022000284600F0CBFF2079617900060904081800
:10023000A17909020818E17900240E18EE60012561
:100240002846A040304204D0601CC0B2142100F007
:100250009BFF641CE4B2182CF2D300F0BDFB5520C8
:1002600001F02CF970BDAA2001F028F9AAE70000DE
:100270000A00002080000020F0B5012185B048046C
:1002800000F06AFA0121084600F08AFA0126760396
:10029000012468460096047100258571C57103210B
:1002A000417109206946C00600F057F9A703684666
:1002B00000970571C47109206946C00600F04DF928
:1002C00009203146C00600F089F968460297057397
:1002D0000C214173847302A800F062F8072168467C
:1002E000017402214174847404A800F0E9F905B096
:1002F000F0BD10B5FFF7C0FF112000F017FC10BDD6
:1003000013E000BF00BF00BF00BF00BF00BF00BFC1
:1003100000BF00BF00BF00BF00BF00BF00BF00BFE5
:1003200000BF00BF00BF00BF00BF0146401E80B23B
:100330000029E6D17047000010B50124A40320462F
:1003400000F024F8002816D009202146C00600F04D
:100350003CF900280CD108480178092908D100216E
:1003600001700220FFF7CCFF0121044800F0EEFCF1
:10037000204600F005F810BD0800002000200040D5
:10038000014948617047000000040140034A0146EA
:10039000526900200A4200D0012070470004014049
:1003A00010B5837918490268002B26D00B68934357
:1003B0000B604A6803689A434A60027952181368CE
:1003C0000468234313608A6803689A438A60CA6892
:1003D00003689A43CA604279102A05D051180A6806
:1003E000006802430A6010BD8A6803681A438A6085
:1003F000CA6800680243CA6010BD007940180168ED
:100400009143016010BD0000000401400149C86033
:100410007047000000200240F0B50646002000F0C2
:100420003FF8BFF36F8F0B273F04384600F084F886
:100430000346042810D10B4C206902252843206173
:1004400066612069402108432061384600F074F855
:1004500003462069A8432061012000F021F81846D6
:10046000F0BD00000020024008490420CA68D207FD
:1004700001D001207047CA68D20601D5022070471A
:10048000C9684907FBD503207047000000200240DF
:100490000248016980221143016170470020024037
:1004A000044910220028086801D0104300E090435E
:1004B0000860704700200240F8B5064600200D464F
:1004C0000090FFF7EDFFBFF36F8F0B273F04384617
:1004D00000F032F80346042817D10E4C20690121A0
:1004E000084320613580384600F026F8034604288A
:1004F00007D1B61C280C00963080384600F01CF856
:10050000034620694008400020610120FFF7C8FF32
:100510001846F8BD0020024004480169090603D5C9
:1005200003494160034941607047000000200240D8
:1005300023016745AB89EFCD00B50346FFF794FF74
:1005400002E0FFF791FF5B1E012803D0002B00D1D2
:10055000052000BD002BF4D1FAE7F0B500220124FC
:1005600023460D6893401D409D422AD10D79012DEF
:1005700001D0022D12D1876855000326AE40B74343
:1005800087604E79AE4085682E43866085889D439E
:10059000858085888B7993401D438580066855004A
:1005A0000323AB409E4306600E790768AE403E438E
:1005B0000660C6689E43C660CB79AB40C5682B43D6
:1005C000C360521C102ACBD3F0BD0246128A002011
:1005D0000A4200D001207047018570478161704751
:1005E000C100054842581368081801790320884063
:1005F00003431360704700000816000870B50A48EE
:10060000C07BC100094843581C680A1816790325A5
:10061000B540AC431C6040580168137901229A40F0
:100620001143016070BD0000100000200816000892
:10063000FEE700000C484169012252041143416168
:1006400041695200114341610020C0430921C9069C
:1006500088600649886006498860064930208860BD
:1006600006490548886070470010024000040048B1
:1006700000080048000C00480FFF0000001400486C
:1006800010B50C49044608680C2210430860204647
:10069000FFF7A6FF08494868182210434860086819
:1006A000012212061043086000F0B8FA204600F05C
:1006B000D1FE10BD00040048004002407047000019
:1006C00030B5837801210278002B15D094080E4BA9
:1006D000A400E41823689207D50EFF22AA40934392
:1006E00042789207120EAA401A4322600078C00690
:1006F000C00E8140054804E0D006C00E814003488A
:100700008030016030BD000000E400E000E100E066
:100710008307FF22DB0E9A408907090E99400028C3
:100720000BDA0007000F0838830808489B001818E8
:10073000C36993430B43C3617047830804489B001C
:100740001B181868904308431860704700ED00E0DC
:1007500000E400E070470000044A0029516901D01C
:10076000014300E0814351617047000000100240E6
:10077000044A0029D16901D0014300E08143D161DD
:100780007047000000100240044A0029116901D09E
:10079000014300E0814311617047000000100240F6
:1007A000044A0029916901D0014300E0814391612D
:1007B0007047000000100240044A0029D16801D0AF
:1007C000014300E08143D160704700000010024007
:1007D00070B51648164C01782170417A6172017A21
:1007E00021724179617101792171C179E171817958
:1007F000A171417861708178A170C178E170C068A1
:10080000E060204600F0DAFC002501263146E06871
:10081000A940084204D0681CC0B2142100F0B4FC06
:100820006D1CEDB2182DF1D370BD000000FE000864
:10083000A800002010B50446000A00F03FFEE0B218
:1008400000F03CFE10BD704770B5384C00256E1CA2
:10085000F0B200F0A5FC6900F5B26052182DF6D395
:10086000002108464200A25A401C5118C0B289B269
:100870001028F7D3491C8EB200F05AF8012000F07E
:100880001DFEFE2000F01AFE00256800205AFFF72A
:10089000D1FF6D1CEDB2102DF7D33046FFF7CAFF24
:1008A000002110204200A25A401C5118C0B289B247
:1008B0001828F7D3891C8EB200F03AF8022000F015
:1008C000FDFDFD2000F0FAFD10256800205AFFF71D
:1008D000B1FF6D1CEDB2182DF7D300240020FFF7F7
:1008E000A9FF641CE4B2082CF8D33046FFF7A2FF3E
:1008F0000324FF2600F01CF8204600F0DFFD301B2B
:1009000000F0DCFD00250020FFF794FF6D1CEDB228
:10091000102DF8D3002000F0D1FD204600F0CEFDD0
:10092000641CE4B2072CE5D370BD00005000002029
:1009300010B5002000F0C2FD552000F0BFFDAA2038
:1009400000F0BCFD10BD00003CB500222048019223
:100950000092016801231943016002210524240348
:1009600005680D400095019D6D1C0195009D002DB1
:1009700002D1019DA542F3D10468A40726D50093B6
:10098000144B12221A604268426042684260426818
:100990007F23DB039A43426042683923DB031A4317
:1009A0004260026801231B061A430260026892013A
:1009B000FCD5426892089200426042680A43426055
:1009C00041680907890F0229FAD13CBD00923CBD5C
:1009D000001002400020024070B50C4DFFF79CFD56
:1009E0003420FFF713FD2846FFF716FD084E0024BC
:1009F000A00031582846FFF75FFD641CE4B22D1DAE
:100A0000042CF5D3FFF744FD70BD000000FE000884
:100A1000A8000020884201D9401A00E0081A80B2DC
:100A200070470000042204490428086902D090435A
:100A3000086170471043FBE700E000E070B50E4826
:100A400064210068FFF774FB0C49401E884212D8ED
:100A50000B4C606103210D1F2846FFF759FE002053
:100A6000A061072020610420FFF7DCFF0421284655
:100A7000FFF74EFE70BDFEE73C000020FFFFFF00C9
:100A800000E000E001B50A210098FFF751FB03499F
:100A9000086008680028FCD108BD000004000020A0
:100AA00010B507490120087006480078002803D0D7
:100AB00005480178491C017000F0C2FC10BD00001F
:100AC000010000200A0000200B00002010B514488F
:100AD00001680122114301604168124A11404160DE
:100AE0000168114A1140016001680122920491439A
:100AF000016041683F22120491434160C16A0909C3
:100B00000901C162016BFF22543291430163416BC1
:100B100049084900416300218160FFF715FF10BDBE
:100B2000001002400CB8FFF8FFFFF6FE7FB5044648
:100B300001210802FFF71CFE124D284600F010F9B3
:100B4000232069460880002008814880641E2846CA
:100B5000019400F069F90121284600F0F1F8012222
:100B60001146284600F058F90021284600F0EEF81A
:100B700013206946087301204873887303A8FFF7A0
:100B80009FFD7FBD0020004070B51E4E0121304604
:100B900000F036F9002819D00121304600F0D3F8D2
:100BA000194D1A4C2878401CC0B2287009280ED064
:100BB00009203114C006FFF708FD0121002828781C
:100BC00019D0401E814020780143217070BD10492A
:100BD000002008700146304600F0B8F822780D4930
:100BE0003A2A02D008780028F0D00B4B08781A5423
:100BF000401C087070BD401E8140207888432070E2
:100C000070BD000000200040080000200900002006
:100C10000B0000200A00002080000020104881699D
:100C200001229204114381610E48682101830D491C
:100C3000052220310A80002242620A810A494A1EA6
:100C40001278895C4A1EC26249084163054A074915
:100C500040329180818A01221143818270470000D5
:100C600000100240004801400D00002001800000FB
:100C70000E48816901229204114381610C48682168
:100C800001830B49052220310A80002242620A8139
:100C90001121C16209214163054A06494032918010
:100CA000818A0122114381827047000000100240B6
:100CB00000480140018000000248018849084900BD
:100CC00001807047004801400348002141620188CB
:100CD0000122114301807047004801400A48C16960
:100CE00002221143C1610948018849084900018075
:100CF0000749C1620549002220310A815022028140
:100D0000012202830A807047001002400004004064
:100D1000A08C000002480188490849000180704702
:100D200000040040054800214162028801210A4375
:100D30000280828A0A4382827047000000040040D9
:100D4000C94301827047C943018270470029018865
:100D500002D00122114301E0490849000180704797
:100D6000204910B5884202D10121C41425E01E4952
:100D7000884206D101210220FFF706FD0021022052
:100D800008E01A49884208D101211020FFF7FCFC35
:100D900000211020FFF7F8FC10BD1549884207D14B
:100DA000841501212046FFF7EFFC00212046F1E7E2
:100DB0001049884209D101210C042046FFF7FCFCB0
:100DC00000212046FFF7F8FC10BD0B49884202D1F4
:100DD00001214C04F1E709498842F5D101218C0435
:100DE000EBE70000002C0140000400400010004030
:100DF0000020004000400140004401400048014004
:100E00000246138A002092890B400A40002B02D030
:100E1000002A00D001207047002A828901D00A43AD
:100E200000E08A438281704710B50288144B9842D3
:100E300006D00124A407A04202D0124CA04203D144
:100E40007024A2434C8822430F4CA04203D00F4C85
:100E500022400C89224302804A68C2620A880285C5
:100E6000984208D00A4A904205D00A4A904202D0DD
:100E7000094A904201D1897A01860121818210BDFF
:100E8000002C01400004004000100040FFFC000066
:100E9000004001400044014000480140F0B5B8481E
:100EA0009DB0417800297DD081780022491CC9B2CB
:100EB0008170179242700B92199214461592427BE0
:100EC0001292027B1192027C1092827905924279F1
:100ED0000992027918921691C179079101780F91C0
:100EE000C1691C91C17A0E91817A0D91407A0126D7
:100EF0006D461B90A3486100415A68460180002955
:100F000004D01B980003FFF713F900E000206946A6
:100F1000088021460C2251439A4A002042328F1801
:100F200041007A5A4919401CC0B24A800628F7D3BA
:100F30006846407B0890002873D0169814280BD27E
:100F4000694608884988884201D969464880002056
:100F50006946C871C872E8E06E20169068468079CC
:100F600008990490884263D9002069460872887203
:100F70004872C879401CC0B2C8711899884206D915
:100F80006846C171017B01200143684601736846D0
:100F9000007B1390800710D50599049888420CD1E6
:100FA000694600E0EAE0C87A401CC0B2C8720999FC
:100FB000884202D908466946C87205990498884251
:100FC00024D108460799411A089881421EDD0799E5
:100FD0000F9848430A21FFF7ABF80599884215D2CC
:100FE00001201C99A04008426946C87A01D0801CA3
:100FF00000E0401CC872C1B20998814224D91398FC
:10100000022108436946087309981CE06846C07AC3
:10101000002807D0059A0499914215D06946401ED0
:1010200011E08FE01398FD210840694608730BE03A
:101030006846C079002803D06946401EC87103E0A5
:10104000002069460873C8720899049849088842C4
:1010500003D91798401CC0B21790002069468871C8
:1010600008884B88984216D3C11A89B2FF2900D943
:10107000FF21C9B26A469171159A914202D90A922A
:10108000159103E00A9A914200D90A916A46517A71
:10109000491C517203E00A46897A491C9172918871
:1010A000884201D9421A00E00A1A090A914202D282
:1010B00010998A4203D26A46117A491C01E0002144
:1010C0006A461172927A0E998A4204D95B1E694669
:1010D0004B8000228A7269464A7A0D998A4205D964
:1010E0006A465188491C51800021517269464B88DB
:1010F000984203D30A7A11998A4206D8984208D2B4
:1011000069460A7A12998A4203D9694648800020C2
:1011100008726846007BC10702D00B9989190B91B0
:10112000800702D5601CC0B2199068460188818092
:10113000012041006A5A79184039401CC0B2CA8760
:101140000728F6D3641C7600E4B2182C00D2D1E64E
:101150000B48169981700021C161159A82710A9A13
:10116000C271199AC2700B9A8261037A179A9A42D5
:1011700004D9C17081618171122181701DB0F0BDEF
:1011800010000020B8000020182805D80C22504379
:10119000024A80182038C17770470000FA0000200A
:1011A000182801D9002070470C21484302494018F3
:1011B0004038C08E70470000FA00002010B5044689
:1011C0001748C16902041143C161816901221143B9
:1011D0008161FFF72FFA00F05DF9FFF749FDFFF796
:1011E0007DFDFEF7CDFF0F482178017261784172D5
:1011F000A1780171E1784171217981726179C172BF
:10120000A1790173E1794173217A0170617A0174E6
:10121000054811210170122141701321817010BD08
:1012200000100240100000200D000020FEB57C4898
:10123000018A890703D47B49C96949047ED5018A9B
:1012400000258907784C002902DA406B608200E0B3
:101250006582E67B0C20754F7043C019C07A002868
:101260006DD0608A0028FBD07148818A02229143A8
:10127000818201680C2291430160016804221143BC
:101280000160FFF7BBF96B480178491CC9B20170D6
:10129000022900D90570FFF70FFDFFF73BFD6648F7
:1012A00041681822914341600168C90EC906016076
:1012B00041684908490041606048C06A80B20090B6
:1012C000A07B082808D1E07B401CC0B2E07317283F
:1012D00002D9E573012060706078E17B0C224A43FB
:1012E000D219D27A002A72D060700846FFF7C8F986
:1012F0000099608A491CFEF71BFF60820146A07BB3
:10130000092862D24300494A401C123AC0B2D15265
:10131000A073092859D3444814468573424D208848
:1013200020352880E0886880A089A880304600F0B9
:10133000FBF8AF1D38806088288001E045E056E06A
:1013400020896880E089A880304600F0EDF8788038
:10135000A088288060896880208AA880304600F0B4
:10136000E3F8B88000F038F92F480C21427A304673
:1013700048432E490025431801930F5A10032C4669
:1013800000902A4861001238415A0098FEF7D0FEBA
:1013900080B2874206D2C11B0198C07A814201DD2A
:1013A0006D1CEDB2641CE4B2092CEAD3072D05D301
:1013B0001D490120CA69B0401043C8611A481B4A40
:1013C000263071004088423A5052FEBDFFE7491C6A
:1013D000C9B2E173172980D9E57301207DE7491C63
:1013E000C9B2E173172903D9E573012000E06078E1
:1013F000E17B0C224A43D219D27A002AEFD06070E6
:10140000C8B2172808D9E573012060700C20454345
:10141000E819C07A0028D8D0E07BFFF731F9D4E78B
:10142000000400400000014010000020FA000020ED
:10143000000400480C000020004002400048014029
:1014400003480168002902D00168491E0160704705
:101450000400002010B50E490B6801221446844098
:1014600023430B604868182398434860486810433A
:101470004860486808231843486082F31088FFF7E3
:1014800023FCFFF74FFC002080F3108810BD000004
:101490000040024007484269012109060A434261AF
:1014A0000548002202600160416818221143416032
:1014B000704700000010024000400240F8B50126CD
:1014C000092705467603FF0631463846FFF784F8BC
:1014D0000D20FEF715FF0024E8073146384602D0FC
:1014E000FFF77CF801E0FFF777F80D20FEF708FF23
:1014F000641C6D08E4B2082CEED331463846FFF781
:101500006DF80D20FEF7FCFEF8BD02E008C8121FC2
:1015100008C1002AFAD170477047002001E001C1DC
:10152000121F002AFBD17047F8B50C21484312491D
:10153000124C095A607A0003FEF7FAFD81B2234685
:10154000A18220331888FFF765FA002506462A464F
:101550005700D85BA18AFFF75DFAB04205D2D85B8D
:10156000A18AFFF757FA06461546521CD2B2032A43
:10157000EED36800185AF8BDFA00002010000020D1
:1015800028260024FFF75AFA1420FFF77BFAFEF70B
:10159000B0FE00270F4DFEF707FEFFF747FE687805
:1015A000012813D16F70641C2878A4B2012808D0D8
:1015B000282C06D9012028700426FFF709F90024F9
:1015C00004E0B44202D90024FFF73EF9FFF766FCBD
:1015D000E1E700000000002070B50A480023591C14
:1015E000CAB25C0008E05600035B855BAB4201D9E0
:1015F00005538353521CD2B2032AF4D3CBB2032B2C
:10160000EDD370BD3600002000000048000000004F
:101610000000004802000000000000480400000034
:10162000000000480600000000000048080000001C
:10163000000000480A000000000000480C00000004
:10164000000000480E0000000004004800000000F8
:1016500000040048040000000004004814000000DA
:1016600000040048160000000004004818000000B4
:10167000000400481A000000000400481C0000009C
:10168000000400481E000000000000481000000098
:101690000000004812000000000000481400000094
:1016A000000000481600000000000048180000007C
:1016B000000000481A000000001400480C00000060
:1016C000001400480E000000E8160008000000208A
:1016D000500000000A1500083817000850000020CC
:1016E000D00500001A1500080300000000000000EB
:1016F00009000000000000001E00000000000000C3
:1017000000000000000000000000000000000000D9
:1017100000000000000000000000000000000000C9
:101720000000000000A24A040000000000000000C9
:08173000010203040607080989
:04000005080000C12E
:00000001FF
