:020000040800F2
:1000000020060020D90000087D07000835060008FA
:1000100000000000000000000000000000000000E0
:1000200000000000000000000000000007090008B8
:10003000000000000000000015080008610B000827
:100040000901000809010008090100080901000868
:100050000901000809010008090100083903000826
:10006000000000000901000809010008090100085A
:10007000090100080901000809010008000000004A
:10008000090100080901000800000000490C0008EF
:100090000901000809010008090100080901000818
:1000A0000901000809010008090100080901000808
:1000B000090100080000000000000000090100081C
:1000C0000448854600F04AF8004800476D190008CA
:1000D000C046C046200600200C4880F308880C4823
:1000E0000168090E0B4A914205D10B480B4901608A
:1000F0000B480C4901600C4880470C480047FEE75C
:10010000FEE7FEE7FEE7FEE7FEE700002006002030
:10011000040000001F000000181002400100000051
:1001200000000140000000008D0B0008C100000825
:1001300030B50B46014600202022012409E00D467F
:10014000D5409D4205D31D469540491B2546954007
:1001500040191546521E002DF1DC30BD064C01251C
:10016000064E05E0E36807CC2B430C3C984710345F
:10017000B442F7D3FFF7A8FF0C1A00082C1A0008A6
:1001800007483F21416200210162026A01210A43BE
:100190000262044AC261C2690A43C2617047000038
:1001A0000000014009060000F8B5314D287800280C
:1001B00009D069780A2906D300262E4C6E70A178E2
:1001C000814201D02E70F8BD20783A284BD160785A
:1001D000A32848D12E70A07BE17B0002081882B2D0
:1001E00000210846235C401C5918C0B289B20E2871
:1001F000F8D3914237D11F4DE0782835287002207E
:1002000068721E202872E07A6871A07A2871607B7B
:10021000E871207BA871607A6870207AA870E87015
:10022000284601F0C9F82079617900060904081808
:10023000A17909020818E17900240E180127EE605F
:100240003D46A540354204D0601CC0B2142101F0E7
:1002500099F8641CE4B2182CF2D300F01DFC552070
:1002600001F022FBF8BDAA2001F01EFBAAE7000066
:100270000A00002084000020F0B5012185B0480468
:1002800000F0CAFA0121084600F0EAFA01267603D6
:10029000012468460096047100258571C57103210B
:1002A000417109206946C00600F04DF9A703684670
:1002B00000970571C47109206946C00600F043F932
:1002C00009203146C00600F07FF9684602970573A1
:1002D0000C214173847302A800F062F8072168467C
:1002E000017402214174847404A800F049FA05B035
:1002F000F0BD10B5FFF7C0FF112000F077FC10BD76
:1003000013E000BF00BF00BF00BF00BF00BF00BFC1
:1003100000BF00BF00BF00BF00BF00BF00BF00BFE5
:1003200000BF00BF00BF00BF00BF0146401E80B23B
:100330000029E6D17047000010B50124A40320462F
:1003400000F024F8002816D009202146C00600F04D
:1003500032F900280CD108480178092908D1002178
:1003600001700220FFF7CCFF0121044800F0ECFDF2
:10037000204600F005F810BD0800002000200040D5
:10038000014948617047000000040140034A0146EA
:10039000526900200A4200D0012070470004014049
:1003A00010B5837918490268002B26D00B68934357
:1003B0000B604A6803689A434A60027952181368CE
:1003C0000468234313608A6803689A438A60CA6892
:1003D00003689A43CA604279102A05D051180A6806
:1003E000006802430A6010BD8A6803681A438A6085
:1003F000CA6800680243CA6010BD007940180168ED
:100400009143016010BD0000000401400149C86033
:100410007047000000200240F0B50646002000F0C2
:100420003FF8BFF36F8F0B273F04384600F07AF890
:100430000346042810D10B4C206902252843206173
:1004400066612069402108432061384600F06AF85F
:1004500003462069A8432061012000F021F81846D6
:10046000F0BD00000020024008490420CA68D207FD
:1004700001D001207047CA68D20601D5022070471A
:10048000C9684907FBD503207047000000200240DF
:100490000248016980221143016170470020024037
:1004A000044910220028086801D0104300E090435E
:1004B0000860704700200240F8B5064600200D464F
:1004C0000090FFF7EDFFBFF36F8F0B273F04384617
:1004D00000F028F8034604280DD1094C20690121B9
:1004E000084320613560384600F01CF80346206957
:1004F0004008400020610120FFF7D2FF1846F8BDF8
:100500000020024004480169090603D503494160FF
:100510000349416070470000002002402301674505
:10052000AB89EFCD00B50346FFF79EFF02E0FFF772
:100530009BFF5B1E012803D0002B00D1052000BDCE
:10054000002BF4D1FAE7F0B50022012423460D6810
:1005500093401D409D422AD10D79012D01D0022DDD
:1005600012D1876855000326AE40B74387604E79A5
:10057000AE4085682E43866085889D43858085884A
:100580008B7993401D438580066855000323AB405B
:100590009E4306600E790768AE403E430660C6681B
:1005A0009E43C660CB79AB40C5682B43C360521CE9
:1005B000102ACBD3F0BD0246128A00200A4200D096
:1005C0000120704701857047816170470849095CC7
:1005D0000320CA060907C90E8840002A01DA054926
:1005E00001E00921C9060A6802430A607047000059
:1005F000F4190008000400480C490B48C97B425C10
:100600000321D3061207D20E012091409040002B07
:1006100001DA074A01E00922D20613688B4313600E
:100620001168014311607047F4190008140000209C
:1006300000040048FEE700000C4841690122520412
:100640001143416141695200114341610020C0439F
:100650000921C906886006498860064988600649FC
:1006600030208860064905488860704700100240C5
:100670000004004800080048000C00480FFF00007C
:1006800000140048F0B505463648032201781206EA
:10069000354B3648561343294FD83549354CEF086A
:1006A0001AD0012F32D0022F15D1086892001043C2
:1006B00008602846FFF78AFF5868310208435860EF
:1006C0001868A1020843186000F0B0FB2A48E061F6
:1006D000284601F077F8F0BD0868032212021043A3
:1006E00008602846FFF772FF5868182108435860D1
:1006F0001868012109060843186000F04FFB1E48E6
:10070000801EE061284601F013F8F0BD0168114336
:1007100001602846FFF75AFF586830435860186850
:10072000012149060843186000F05CFB1248801C58
:10073000E061284601F020F8F0BD01681143016036
:100740002846FFF743FF5868304358601868012176
:1007500049060843186000F0C1FA284601F058F82D
:10076000F0BD00000C0000200040024000040048E2
:10077000000000480000014007060000704700002C
:1007800030B5837801210278002B15D094080E4BE8
:10079000A400E41823689207D50EFF22AA409343D1
:1007A00042789207120EAA401A4322600078C006CF
:1007B000C00E8140054804E0D006C00E81400348C9
:1007C0008030016030BD000000E400E000E100E0A6
:1007D0008307FF22DB0E9A408907090E9940002803
:1007E0000BDA0007000F0838830808489B00181828
:1007F000C36993430B43C3617047830804489B005C
:100800001B181868904308431860704700ED00E01B
:1008100000E400E070470000044A0029516901D05B
:10082000014300E081435161704700000010024025
:10083000044A0029D16901D0014300E08143D1611C
:100840007047000000100240044A0029116901D0DD
:10085000014300E081431161704700000010024035
:10086000044A0029916901D0014300E0814391616C
:100870007047000000100240044A0029D16801D0EE
:10088000014300E08143D160704700000010024046
:1008900070B51648164C01782170417A6172017A60
:1008A00021724179617101792171C179E171817997
:1008B000A171417861708178A170C178E170C068E0
:1008C000E060204600F078FD002501263146E06812
:1008D000A940084204D0681CC0B2142100F052FDA7
:1008E0006D1CEDB2182DF1D370BD000000FE0008A4
:1008F000AC00002010B50446000A00F0D5FFE0B2BD
:1009000000F0D2FF10BD704770B5384C00256E1C4A
:10091000F0B200F043FD6900F5B26052182DF6D335
:10092000002108464200A25A401C5118C0B289B2A8
:100930001028F7D3491C8EB200F05AF8012000F0BD
:10094000B3FFFE2000F0B0FF00256800205AFFF73B
:10095000D1FF6D1CEDB2102DF7D33046FFF7CAFF63
:10096000002110204200A25A401C5118C0B289B286
:100970001828F7D3891C8EB200F03AF8022000F054
:1009800093FFFD2000F090FF10256800205AFFF72C
:10099000B1FF6D1CEDB2182DF7D300240020FFF736
:1009A000A9FF641CE4B2082CF8D33046FFF7A2FF7D
:1009B0000324FF2600F01CF8204600F075FF301BD2
:1009C00000F072FF00250020FFF794FF6D1CEDB2D0
:1009D000102DF8D3002000F067FF204600F064FFE0
:1009E000641CE4B2072CE5D370BD00005400002065
:1009F00010B5002000F058FF552000F055FFAA2048
:100A000000F052FF10BD00003CB5002220480192CA
:100A10000092016801231943016002210524240387
:100A200005680D400095019D6D1C0195009D002DF0
:100A300002D1019DA542F3D10468A40726D50093F5
:100A4000144B12221A604268426042684260426857
:100A50007F23DB039A43426042683923DB031A4356
:100A60004260026801231B061A4302600268920179
:100A7000FCD5426892089200426042680A43426094
:100A800041680907890F0229FAD13CBD00923CBD9B
:100A9000001002400020024070B50C4DFFF732FDFF
:100AA0003420FFF7B3FC2846FFF7B6FC084E0024BD
:100AB000A00031582846FFF7FFFC641CE4B22D1D4E
:100AC000042CF5D3FFF7E4FC70BD000000FE000825
:100AD000AC000020884201D9401A00E0081A80B218
:100AE00070470000042204490428086902D090439A
:100AF000086170471043FBE700E000E070B50E4866
:100B000064210068FFF714FB0C49401E884212D88C
:100B10000B4C606103210D1F2846FFF759FE002092
:100B2000A061072020610420FFF7DCFF0421284694
:100B3000FFF74EFE70BDFEE740000020FFFFFF0004
:100B400000E000E001B50A210098FFF7F1FA03493F
:100B5000086008680028FCD108BD000004000020DF
:100B600010B507490120087006480078002803D016
:100B700005480178491C017000F0D0FD10BD00004F
:100B8000000000200A0000200B00002010B51448CF
:100B900001680122114301604168124A114041601D
:100BA0000168114A114001600168012292049143D9
:100BB000016041683F22120491434160C16A090902
:100BC0000901C162016BFF22543291430163416B01
:100BD00049084900416300218160FFF715FF10BDFE
:100BE000001002400CB8FFF8FFFFF6FE7FB5044688
:100BF00001210802FFF71CFE124D284600F0AEF955
:100C0000232069460880002008814880641E284609
:100C1000019400F007FA0121284600F08FF9012223
:100C20001146284600F0F6F90021284600F08CF91C
:100C300013206946087301204873887303A8FFF7DF
:100C40009FFD7FBD0020004070B51E4E0121304643
:100C500000F0D4F9002819D00121304600F071F9D4
:100C6000194D1A4C2878401CC0B2287009280ED0A3
:100C700009203114C006FFF79EFC012100282878C6
:100C800019D0401E814020780143217070BD104969
:100C9000002008700146304600F056F922780D49D0
:100CA0003A2A02D008780028F0D00B4B08781A5462
:100CB000401C087070BD401E814020788843207021
:100CC00070BD000000200040080000200900002046
:100CD0000B0000200A0000208400002010488169D9
:100CE00001225204114381610E48682101830D499C
:100CF000052220310A80002242620A810A498A1EA6
:100D00005278895C4A1EC26249084163054A074914
:100D100040329180818A0122114381827047000014
:100D200000100240004401400E000020018000003D
:100D30000E48816901225204114381610C486821E7
:100D400001830B49052220310A80002242620A8178
:100D50001121C16209214163054A0649403291804F
:100D6000818A0122114381827047000000100240F5
:100D70000044014001800000024801884908490000
:100D8000018070470044014003480021416201880E
:100D90000122114301807047004401400E48402168
:100DA0008180682101830C49052220310A800022BC
:100DB00042620A8109498A1E5278895C4A1EC262CF
:100DC00049084163044A064940329180818A0122E0
:100DD0001143818270470000002C01400E0000206A
:100DE000018000000E48502282800D21C90201833B
:100DF0000B4920310A80002242620A8109498A1E79
:100E00005278895C4A1EC26249088163044A0649D5
:100E100040329180818A0122114381827047000013
:100E2000002C01400E000020018000000E486021CF
:100E300081806821818305220B49120220310A80BA
:100E4000002242620A8109498A1E5278895C4A1E40
:100E5000C2624908C163044A054940329180818ACF
:100E60000122114381827047002C01400E000020B6
:100E7000018000000C488169C214114381610B4854
:100E800000214162094A203211811121C1620921E8
:100E900041638163054A064940329180818A01227B
:100EA000114381827047000000100240002C014075
:100EB000018000000248018849084900018070470C
:100EC000002C0140034800214162018801221143A6
:100ED00001807047002C01400A48C1690222114379
:100EE000C161094801884908490001800749C16278
:100EF0000549002220310A81502202810122028309
:100F00000A8070470010024000040040A08C0000DE
:100F100002480188490849000180704700040040E8
:100F2000054800214162028801210A430280828A29
:100F30000A4382827047000000040040C9430182D6
:100F40007047C943018270470029018802D00122FD
:100F5000114301E04908490001807047204910B55C
:100F6000884202D10121C41425E01E49884206D1DD
:100F700001210220FFF768FC0021022008E01A4945
:100F8000884208D101211020FFF75EFC00211020CB
:100F9000FFF75AFC10BD1549884207D1841501217D
:100FA0002046FFF751FC00212046F1E71049884216
:100FB00009D101210C042046FFF75EFC00212046E8
:100FC000FFF75AFC10BD0B49884202D101214C04A5
:100FD000F1E709498842F5D101218C04EBE70000D3
:100FE000002C0140000400400010004000200040A0
:100FF0000040014000440140004801400246138A7D
:10100000002092890B400A40002B02D0002A00D019
:1010100001207047002A828901D00A4300E08A43F8
:101020008281704710B50288144B984206D0012483
:10103000A407A04202D0124CA04203D17024A243C4
:101040004C8822430F4CA04203D00F4C22400C8905
:10105000224302804A68C2620A880285984208D008
:101060000A4A904205D00A4A904202D0094A904268
:1010700001D1897A01860121818210BD002C0140B5
:101080000004004000100040FFFC00000040014050
:101090000044014000480140F0B5B8489DB0417897
:1010A00000297DD081780022491CC9B28170179235
:1010B00042700B92199214461592427B1292027B57
:1010C0001192027C109282790592427909920279FA
:1010D00018921691C179079101780F91C1691C91FD
:1010E000C17A0E91817A0D91407A01266D461B904E
:1010F000A3486100415A68460180002904D01B982A
:101100000003FFF715F800E000206946088021463B
:101110000C2251439A4A002042328F1841007A5AD9
:101120004919401CC0B24A800628F7D36846407B64
:101130000890002873D0169814280BD269460888A6
:101140004988884201D96946488000206946C871AB
:10115000C872E8E06E20169068468079089904907D
:10116000884263D900206946087288724872C8793B
:10117000401CC0B2C8711899884206D96846C1712E
:10118000017B01200143684601736846007B139090
:10119000800710D50599049888420CD1694600E073
:1011A000EAE0C87A401CC0B2C8720999884202D9E4
:1011B00008466946C87205990498884224D10846B1
:1011C0000799411A089881421EDD07990F984843F4
:1011D0000A21FEF7ADFF0599884215D201201C991E
:1011E000A04008426946C87A01D0801C00E0401C3B
:1011F000C872C1B20998814224D9139802210843C8
:101200006946087309981CE06846C07A002807D030
:10121000059A0499914215D06946401E11E08FE06D
:101220001398FD210840694608730BE06846C079B1
:10123000002803D06946401EC87103E000206946BB
:101240000873C872089904984908884203D9179806
:10125000401CC0B2179000206946887108884B88EE
:10126000984216D3C11A89B2FF2900D9FF21C9B209
:101270006A469171159A914202D90A92159103E03A
:101280000A9A914200D90A916A46517A491C5172D0
:1012900003E00A46897A491C91729188884201D9F3
:1012A000421A00E00A1A090A914202D210998A42AF
:1012B00003D26A46117A491C01E000216A46117284
:1012C000927A0E998A4204D95B1E69464B800022AD
:1012D0008A7269464A7A0D998A4205D96A465188C6
:1012E000491C51800021517269464B88984203D3B2
:1012F0000A7A11998A4206D8984208D269460A7A2F
:1013000012998A4203D969464880002008726846CB
:10131000007BC10702D00B9989190B91800702D578
:10132000601CC0B21990684601888180012041008C
:101330006A5A79184039401CC0B2CA870728F6D3C8
:10134000641C7600E4B2182C00D2D1E60B48169942
:1013500081700021C161159A82710A9AC271199A2D
:10136000C2700B9A8261037A179A9A4204D9C170AB
:1013700081618171122181701DB0F0BD14000020C7
:10138000BC000020182805D80C225043024A8018BF
:101390002038C17770470000FE000020182801D9CE
:1013A000002070470C214843024940184038C08E45
:1013B00070470000FE00002070B504461D48C1695A
:1013C00002041143C16181690122114381611A48FC
:1013D00000681A4D000C2870FFF72EF900F03EFA55
:1013E0002878432802D8FFF745FD01E0FFF7A0FC6D
:1013F000FFF772FDFEF7C4FE114821780172617893
:101400004172A1780171E17841712179817261792C
:10141000C172A1790173E1794173217A0170617A16
:10142000017408481121017012214170132181704B
:1014300070BD0000001002400080FF1F0C00002063
:10144000140000200E000020FEB5AA49088A80077B
:1014500003D4A948C069400471D5088A00268207D0
:10146000A648002A02DA496B418200E04682C57B29
:101470000C21A34A69438918C97A00297ED0418A80
:101480000029FBD09F48A0490078032212068B0355
:101490009E4C432854D86003082D11D201681214C1
:1014A0009143016001681A1411430160FFF7A4F829
:1014B00060681821884360606068400840002BE045
:1014C000102D12D20868904308600868184308601D
:1014D000FFF792F861680320C00281436160616890
:1014E000FF2001308143616017E0182D15D201689B
:1014F0000322920691430160016801229206114382
:101500000160FFF779F860680321C90488436060CF
:10151000606801210904884360607D480178491CA6
:10152000C9B20170022900D90670FFF7C3FCFFF7AA
:10153000EFFC2068C00EC006206076482AE0AEE0CE
:10154000086890430860086818430860888A012288
:10155000120390438882FFF74FF86D480178491CC9
:10156000C9B20170022900D90670FFF705FCFFF728
:10157000CFFC61680320C002814300E0A0E061600D
:101580002068C00EC00620606168FF2001308143E2
:1015900061606148C06A594C87B2A07B082808D1B5
:1015A000E07B401CC0B2E073172802D9E67301202B
:1015B000607060785249E27B0C2353435B18DB7AFE
:1015C000002B6DD060701046FFF75CF8791C608AC4
:1015D000FEF7AEFD6082A07B092860D24300484937
:1015E000401C1239628AC0B2CA52A073092856D36D
:1015F0004248424C86730E46308820342080F08862
:101600006080B089A080284600F084F9A71D38804A
:101610007088208030896080F089A080284600F0A2
:1016200079F97880B088208070896080308AA080C5
:10163000284600F06FF9B88000F0C4F92F480C215B
:10164000427A284648432E490026431801930F5AF0
:101650001003344600902A4861001238415A00981D
:10166000FEF766FD80B2874206D2C11B0198C07AA0
:10167000814201DD761CF6B2641CE4B2092CEAD387
:10168000072E05D31D490120CA69A8401043C8612F
:101690001A481B4A263069004088423A5052FEBD23
:1016A000521CD2B2E273172A85D9E673012082E771
:1016B000491CC9B2C173172904D9C673012301E0BB
:1016C00043780F4AC17B0C244C43A418E47A002CC5
:1016D000EED0C9B24370172908D9C67301214170F1
:1016E0000C214E43B118C97A0029D8D0C07BFEF72F
:1016F000C9FFFEBD000400400000014014000020AE
:10170000FE0000200C0000200004004800400240C1
:101710000D000020002C01400044014003480168F6
:10172000002902D00168491E0160704704000020B2
:1017300010B510490B6801221446844023430B6006
:101740004868182398434860486804231843486051
:10175000486810434860486808231843486082F38B
:101760001088FFF7AFFBFFF7DBFB002080F310884A
:1017700010BD00000040024010B511490B68012265
:101780001446844023430B6048680323DB029843DC
:10179000486048680B151843486048688B15184323
:1017A00048604868CB141843486082F31088FFF7FC
:1017B00089FBFFF7B5FB002080F3108810BD000007
:1017C0000040024010B511490B68012214468440C4
:1017D00023430B6048680323DB0498434860486850
:1017E00093041843486048681304184348604868E5
:1017F000D3041843486082F31088FFF763FBFFF7B8
:101800008FFB002080F3108810BD000000400240D4
:1018100010B511490B6801221446844023430B6024
:1018200048680323DB029843486048680B15184357
:10183000486048688B15184348604868CB141843C3
:10184000486082F31088FFF79FFAFFF769FB0020DA
:1018500080F3108810BD0000004002400F4842692C
:10186000012109060A4342610D48002202604268D4
:101870000A4342600B490A784115432A42680AD854
:1018800002231A43426042680A43426041681A04D4
:101890001143416070478A43426070470010024024
:1018A000004002400C000020F8B50126092705463B
:1018B0007603FF0631463846FEF784FE0D20FEF71C
:1018C0001FFD0024E8073146384602D0FEF77CFEB3
:1018D00001E0FEF777FE0D20FEF712FD641C6D0897
:1018E000E4B2082CEED331463846FEF76DFE0D20EB
:1018F000FEF706FDF8BD02E008C8121F08C1002A65
:10190000FAD170477047002001E001C1121F002A80
:10191000FBD17047F8B50C2148431249124C095AC3
:10192000607A0003FEF704FC81B22346A1822033D3
:101930001888FFF7CFF8002506462A465700D85BDF
:10194000A18AFFF7C7F8B04205D2D85BA18AFFF79A
:10195000C1F806461546521CD2B2032AEED36800DF
:10196000185AF8BDFE00002014000020282600248C
:10197000FFF7C4F81420FFF7E5F8FEF7BAFC0027DC
:101980000F4DFEF711FCFFF75FFD2878012813D1FA
:101990002F70641C6878A4B2012808D0282C06D9BE
:1019A000012068700426FEF773FF002404E0B442AF
:1019B00002D90024FEF7A8FFFFF76EFBE1E7000065
:1019C0000000002070B50A480023591CCAB25C0010
:1019D00008E05600035B855BAB4201D90553835396
:1019E000521CD2B2032AF4D3CBB2032BEDD370BD79
:1019F0003A000020000102030506071110121A1B0D
:101A00001D1E1F08090A0B0C0E0F13142C1A0008B8
:101A10000000002054000000F6180008801A00089A
:101A200054000020CC05000006190008000000004A
:101A3000000000000900000000000000000000009D
:101A40001E00000000000000000000000000000078
:101A50000000000000000000000000000000000086
:101A600000000000000000000000000000A24A0486
:101A7000000000000000000001020304060708093E
:04000005080000C12E
:00000001FF
