:020000040800F2
:1000000038060020D5000008B9020008590200088F
:1000100000000000000000000000000000000000E0
:10002000000000000000000000000000D9020008ED
:100030000000000000000000BB020008810300086F
:100040000501000805010008050100080501000878
:100050000501000805010008050100080501000868
:100060000000000005010008050100080501000866
:100070000501000805010008050100080000000056
:100080000501000805010008000000000501000846
:100090000501000805010008050100080501000828
:1000A0000501000805010008050100080501000818
:1000B0000501000805010008000000000501000816
:1000C0000348854600F07AF800480047E10300083D
:1000D000380600200C4880F308880C480168090E97
:1000E0000B4A914205D10B480B4901600B480C4962
:1000F00001600C4880470C480047FEE7FEE7FEE73A
:10010000FEE7FEE7FEE700003806002004000000DE
:100110001F00000018100240010000000000014014
:100120000000000085030008C100000870B5044607
:10013000002903D000202022012310E0002801D054
:100140000020C043C046C0460DE02546D5408D4244
:1001500005D30D469540641B1D4695404019154634
:10016000521E002DF1DC214670BD000070B5002547
:1001700004462E46002911D0002C01DA0125444204
:10018000002901DA012649422046FFF7CFFFB54298
:1001900000D04042002D00D0494270BD002C02DA50
:1001A0000121C90702E0002C00DD03490846C046D2
:1001B000C046214670BD0000FFFFFF7F064C0125B1
:1001C000064E05E0E36807CC2B430C3C98471034FF
:1001D000B442F7D3FFF778FF7015000890150008B8
:1001E000F0B50A6800231C4614E003269E40076809
:1001F000B74307609D4007682F430760C568B54354
:10020000C560CD799D40C6682E43C6609B1C641CAA
:10021000102C1CD01546E540ED07F7D00D796E1E69
:10022000012EE2D803269E408768B74387604E7947
:100230009E408768374387600126A6408788B7437A
:1002400087808E79A640878837438780CDE7F0BDC9
:1002500001857047816170477047000010B5154CEB
:10026000022807D0012101280AD12046FFF7F0FF1C
:10027000022109E002212046FFF7EAFF012103E005
:100280002046FFF7E7FF02212046FFF7E3FF10BDFE
:1002900080B582B00121880400F010F8032000909E
:1002A0000348019003486946FFF79AFF02B080BDFA
:1002B000010300000004004870477047054A002908
:1002C00003D01168014311607047116881431160C8
:1002D0007047C04614100240704780B500F002F825
:1002E00080BD000070B582B00024019400942248C3
:1002F000021F1168012319431160156802210D4086
:100300000095019D6D1C0195009D002D04D10525D2
:100310002D03019EAE42F0D11568AD0701D40094C3
:1003200000E00093009C012C23D1144C1225256081
:1003300004680460046804607F24E4030568A5433E
:1003400005603924E4030568254305601B0614682D
:100350001C43146013689B01FCD5026803239A4375
:10036000026002680A43026001680C220A40082AFF
:10037000FAD102B070BDC046041002400020024015
:100380007047000080B51348026801210A430260EB
:100390004268114B134043600268104B13400360E6
:1003A0008A040368934303603F2212044368934323
:1003B0004360C26A0F239A43C262FF225432036B26
:1003C00093430363426B8A43426300218160FFF7DA
:1003D00084FF80BD001002400CB8FFF8FFFFF6FE5E
:1003E000FFF756FF00F0E8FC00F046FD00F0D8FAF9
:1003F00000F0DCFCFFF732FFF6E700003F20094980
:100400004862002008620846006A01210843054945
:1004100008620548C8610846C069012108430149CE
:10042000C861704700000140090600000148024908
:10043000C8617047050600000000014001480249FC
:10044000C8617047090600000000014001480249E8
:10045000C86170470706000000000140C100074A5C
:1004600051580968C200054BD218137903229A40EB
:100470001143C200014B9A5811607047A014000844
:100480001B481C490978405CC0001B49085800689B
:100490001749184A1278895CC900174A89180A79DD
:1004A0000321914088431249124A1278895CC9009D
:1004B000114A515808600E480E490978405CC00046
:1004C0001146085800680A490A4A1278895CC9002E
:1004D000094A89180A790121914008430449054ACB
:1004E0001278895CC900044A5158086070470000BE
:1004F000641500081F000020A01400080E48406981
:100500000121490408430C4948610846406901211A
:1005100089040843084948610020C0430921C906ED
:1005200088600649886006498860302005498860EF
:1005300005480649886070470010024000040048E2
:1005400000080048000C00480FFF0000001400489D
:1005500010B5044649480078432870DC2046E1176E
:10056000490F0918C910002904D0012923D00229F4
:1005700063D140E00920C006006803210902084356
:100580000921C90608602046FFF768FF3C4840681B
:10059000182108433A4948600846006801210906C5
:1005A00008433749086000F0E9F8FFF73FFF2046AD
:1005B00000F036FE41E03348006803210906084395
:1005C000304908602046FFF749FF2D484068032165
:1005D000C90208432A4948600846006801214906C3
:1005E00008432749086000F0FBF8FFF727FF204683
:1005F00000F044FE21E00920C006006803218906BE
:1006000008430921C90608602046FFF727FF1C4858
:1006100040680321C9040843194948600846006836
:100620000121890608431649086000F00DF9FFF71B
:100630000DFF204600F052FE00BF1DE0FFE711480D
:1006400000680321090608430E4908602046FFF7A9
:1006500005FF0B4840680321C90208430849486068
:10066000084600680121490608430549086000F072
:100670000BF8204600F064FE10BD000026000020AC
:1006800000400240000400481748806901214904E5
:1006900008431549886168201449088305201349D7
:1006A000203108800020114948621049203108811A
:1006B0000F4810490978405C401E0C49C8620C493B
:1006C0000C4A1278885CC10F09184910074A516317
:1006D00009480649403188801046808A0121084334
:1006E000114688827047000000100240004401401B
:1006F000270000202A0000200180000011488069A6
:100700000121490408430F49886168200E49088384
:1007100005200D492031088000200B4948620A4914
:100720002031088111200849C86209204863074820
:100730000549403188800448808A012108430249E4
:100740008882704700100240004401400180000090
:1007500003480088400840000149088070470000B5
:1007600000440140002004494862084600880121F5
:100770000843014908807047004401404020144963
:1007800088806820088305201149203108800020D6
:100790000F4948620E49203108810E480E490978F8
:1007A000405C401E0A49C8620A490B4A1278885CBC
:1007B000C10F09184910064A5163084804494031DD
:1007C00088801046808A012108431146888270473C
:1007D000002C0140270000202A000020018000009A
:1007E0005020154988800D20C002088350201249EE
:1007F000203108800020104948620F4920310881CB
:100800000E480F490978405C401E0B49C8620B49ED
:100810000B4A1278885CC10F09184910064A916387
:1008200008480549403188801046808A01210843E4
:100830001146888270470000002C014027000020EC
:100840002A0000200180000060201549888068206F
:1008500088830520000212492031088000201049B9
:1008600048620F49203108810E480F490978405CE1
:10087000401E0B49C8620B490B4A1278885CC10FB5
:1008800009184910064AD163084805494031888053
:100890001046808A01210843114688827047000073
:1008A000002C0140270000202A00002001800000C9
:1008B0000E4880690121C90208430C498861002063
:1008C0000B4948620A492031088111200849C86251
:1008D00009204863886307480549403188800448F7
:1008E000808A012108430249888270470010024033
:1008F000002C0140018000000348008840084000AF
:100900000149088070470000002C01400020044984
:100910004862084600880121084301490880704761
:10092000002C01400D48C069022108430B49C861F1
:100930000B48008840084000094908800948C862FF
:1009400000200749203108815020054908810120F5
:1009500008830349203108807047000000100240DE
:1009600000040040A08C00000348008840084000BC
:10097000014908807047000000040040002007493A
:100980004862084600880121084304490880084657
:10099000808A012108430149888270470004004091
:1009A000F0B58BB0E748007800287DD0E6480078A5
:1009B000401CE549087000200190E249087002904F
:1009C0000120049000270026002599E16800DF49F6
:1009D0000968095A68468183808B002809DD6A46C8
:1009E000918BDB4A12781003FFF7A0FB6A469083D5
:1009F00002E000206946888300240CE00C20684354
:100A0000D449096840186100415A601C400007AA97
:100A10001152601CC4B2062CF0DBCB4800781428BD
:100A20000CDA6846818BC08B814202DD6846818B7F
:100A3000C183002108A8C170C17148E16E20C2497C
:100A4000087008A88178407A81427FDD002108A8DB
:100A5000017181714171C078401CC1B208A8C17098
:100A6000C078BD490978884208DDBB48017808A8EC
:100A7000C170007A0121084308A9087208A8007A09
:100A800002210840002816D008A88078B3490978C8
:100A9000884210D108A8C079401CC1B208A8C17111
:100AA000C079AF49097800E049E1884203DDAC48EC
:100AB000007808A9C87108A88078A84909788842F0
:100AC0002BD1A6480078A7490978401A08A9497A85
:100AD000884222DDA4490978A24A12785143084687
:100AE0000A21FFF743FB9D490978884215DA08A8D7
:100AF000C079401CC1B208A8C171C0799849097871
:100B0000884232DD08A8017A0220014308A8017258
:100B10009348017808A8C17127E008A8C079002887
:100B20000DDD08A880788D49097888421DD008A875
:100B3000C079401EC1B208A8C17116E006E008A93C
:100B4000087A0221884308A908720EE008A8C07834
:100B5000002806DD08A8C078401EC1B208A8C170F0
:100B600003E0002108A80172C17108A9487A8978B8
:100B7000C20F12185210914203DD0198401CC0B2FE
:100B80000190002108A881706846818BC08B81424A
:100B900024DB6846818BC08B081A80B203900398CF
:100BA000FF2801DDFF2003900398C1B208A88170DF
:100BB0008078B04203DD069608A8867807E008A88A
:100BC00081780698814202DD08A88078069008A8FE
:100BD0004079401CC1B208A8417105E008A880799D
:100BE000401CC1B208A881716846818B008C81428B
:100BF00005DD6846818B008C081A059004E0684684
:100C0000018C808B081A05906946088CC117090E63
:100C100009180A1205998A4204D2544A1278059991
:100C2000914206D208A80079401CC1B208A80171FF
:100C300002E0002008A9087108A880794C490978C9
:100C4000884208DD6846C08B401E81B26846C18379
:100C5000002108A8817108A840794649097888428E
:100C600008DD6846C08B401C81B26846C183002104
:100C700008A841716846818BC08B814205DB08A8BA
:100C800000793D49097888420ADC6846818BC08B2F
:100C900081420BDA08A8007938490978884205DDD5
:100CA0006846818BC183002108A8017108A8007AD9
:100CB000C007C00F002801D004983F1808A8007A88
:100CC00002210840002802D0681CC0B20290684689
:100CD000818B018401240CE0600007A9095A0C20D3
:100CE00068431C4A12688218601E40001152601C42
:100CF000C4B2072CF0DB049840000490681CC5B215
:100D00001F480078854200DA60E6144806701549ED
:100D1000069808701B49029808701B4807601B4919
:100D200009780198884209DD0020164908701649A3
:100D300008600A49087012200349087000BF0BB010
:100D4000F0BD00001400002015000020000000206D
:100D500068150008100000206C1500081C00002019
:100D60006D1500081D0000206B15000824000020F0
:100D70006015000863150008621500086115000879
:100D800066150008160000201800002067150008EE
:100D9000182800DB70470C224243034B1B68D21813
:100DA000D17200BFF6E70000100000200148007873
:100DB000704700001600002010B52648C0690121C8
:100DC000090708432349C86108468069012108438F
:100DD00020498861204800680002000E1F49087001
:100DE000FFF78CFB00F0DCFA1C480078432802DC9B
:100DF000FFF75EFD01E0FFF781FCFFF793FDFFF7D2
:100E0000FDFA1120164908701220487013208870CE
:100E1000032014490870144909780C2251430846EC
:100E200000F008FB114908600F490978480000F0FC
:100E300001FB0F490860002406E00E48015D2046D2
:100E4000FFF7A6FF601CC4B2074800788442F4DBB9
:100E500010BD0000001002400080FF1F260000208F
:100E60002700002025000020661500081000002043
:100E70000000002069150008FEB5D448008A022150
:100E80000840022805D0D248C0694903084088427A
:100E90007ED1CE48008A02210840022803D1CB48E7
:100EA000406B84B200E00024002C72DDC948007859
:100EB0000290C9480678C948007843286ADCC848C7
:100EC000C4490978405C08281EDA0920C006006879
:100ED0000321090288430921C90608600846006801
:100EE000FF21013108430921C9060860FFF7C8FA4C
:100EF000BC48406818218843BA49486008464068A1
:100F00004008400048604DE0B548B2490978405C6F
:100F100010281CDAB4480068032109068843B24946
:100F200008600846006889030843AF490860FFF776
:100F3000A7FAAC4840680321C9028843A949486020
:100F40000846406889158843A64948602AE0A448B5
:100F5000A0490978405C182824DA0920C0060068F6
:100F60000321890688430921C906086008460068EC
:100F70000121890608430921C9060860FFF780FAA4
:100F8000984840680321C90488439649486002E0B4
:100F90001AE113E120E00846406801210904884372
:100FA000904948608C480078401C8B49087008467E
:100FB0000078022801DD00200870FFF79DFCFFF794
:100FC000D3FC88480068C00EC00686490860874880
:100FD000C06A80B201903AE08348006803210906A4
:100FE00088438149086008460068890308437E49B0
:100FF00008600846808A0121090388437A4988826B
:10100000FFF73EFA74480078401C734908700846A0
:101010000078022801DD00200870FFF799FBFFF738
:10102000A3FC704840680321C90288436D494860A9
:1010300008460068C00EC00608600846406889156A
:101040008843684948606A48C06A80B2019069482C
:101050000078401C6749087008460078664909789E
:10106000884205DA5E495B4A1278885CFFF770FABD
:101070000199491C2046FFF779F884B25F4800883F
:1010800000195E4908805E480088844204DD5C489F
:101090000088201A87B203E059480088001B87B2F5
:1010A00070005849085AB84204DD70000F527000B1
:1010B00055490C524F4800784F49097888427CDBEB
:1010C0004E480088012809DA4B480078272805DABD
:1010D00049480078C01C4849087068E0002045492C
:1010E00008704948008848494988884208DD4648D0
:1010F0000088009044484088434908800098488010
:101100004148408840498988884208DD3E484088F7
:1011100000903D4880883C494880009888803A4843
:10112000008839494988884207DD37480188029894
:101130004000364A1268115206E03348418802984E
:101140004000324A12681152002506E00020C043D8
:1011500069002C4A5052681CC5B2032DF6DB0020F2
:10116000264908801B480078401C1A490870084628
:10117000007827490978884205DB00201549087066
:10118000012024490870134A12780C235A43224B39
:101190001B68995A214A12781003FEF7C7FF1849B5
:1011A000088003201449087000200B4908700C497E
:1011B000084A1278885CFFF7CBF9FEBD0849054A5A
:1011C0001278885CFFF7C4F900BFF6E7000400401E
:1011D000000001401F0000202A00002026000020FF
:1011E000641500080040024000040048002C014043
:1011F000004401401E0000202500002022000020A5
:10120000200000200A000020040000200000002030
:101210006615000814000020100000206815000862
:1012200010B50446144800680121A1400843124942
:10123000086008464068182188430F4948600846FE
:101240004068042108430C49486008464068012171
:101250000843094948600846406808210843064990
:101260004860012000F0E3F8FFF750FBFFF786FB32
:10127000002000F0DCF810BD0040024010B504462C
:10128000154800680121A140084313490860084639
:1012900040680321C90288430F49486008464068F6
:1012A000091508430C4948600846406889150843F9
:1012B0000949486008464068C9140843064948601F
:1012C000012000F0B4F8FFF721FBFFF757FB0020E7
:1012D00000F0ADF810BD00000040024010B504461B
:1012E000164800680121A1400843144908600846D7
:1012F00040680321C9048843104948600846406893
:101300000121890408430D494860084640680121CD
:101310000904084309494860084640680121C90496
:10132000084306494860012000F081F8FFF7EEFA13
:10133000FFF724FB002000F07AF810BD00400240C7
:1013400010B50446154800680121A140084313491F
:101350000860084640680321C90288430F49486075
:1013600008464068091508430C494860084640682B
:10137000891508430949486008464068C91408436C
:1013800006494860012000F052F8FFF7EBF9FFF73B
:10139000F5FA002000F04BF810BD000000400240BC
:1013A0001848406901210906084316494861002090
:1013B000154908600846406801210906084312499A
:1013C000486012480078432813DC08464068022130
:1013D00008430D49486008464068491508430A49D2
:1013E00048600846406801214904084306494860AE
:1013F00006E00548406801214902884302494860E7
:10140000704700000010024000400240260000200B
:1014100002E008C8121F08C1002AFAD170477047BD
:10142000002001E001C1121F002AFBD1704780F3A8
:1014300010887047F0B50B30C108C900144F002662
:10144000144A0FE003688B420BD38B4205D95C1A18
:101450004318456830C3083B00E04368136002C08E
:1014600004E0021D10680028ECD13046002803D1AA
:101470003868002801D00020F0BD064A06481060F8
:10148000064A121AD208D20044C001203860D7E7B9
:10149000300000202C0000203C00002038020020FA
:1014A00000000048000000000000004802000000AA
:1014B0000000004804000000000000480600000092
:1014C000000000480A000000000000480C00000076
:1014D000000000480E000000000400480200000068
:1014E0000004004800000000000400480400000060
:1014F000000400481400000000040048160000002A
:10150000000400481A000000000400481C0000000D
:10151000000400481E000000000000481000000009
:101520000000004812000000000000481400000005
:1015300000000048160000000000004818000000ED
:10154000000000481C000000000000481E000000D1
:1015500000040048060000000004004808000000E5
:10156000323232320A0B02085014141E04040000F6
:10157000901500080000002038000000101400083A
:10158000C8150008380000200006000020140008DC
:10159000000000000000000000000000000000004B
:1015A000000000000000000000000000000000003B
:1015B000000000000000000000000000000000002B
:0815C000000000000000000023
:04000005080000C12E
:00000001FF
