:020000040800F2
:1000000038060020D5000008BD020008590200088B
:1000100000000000000000000000000000000000E0
:10002000000000000000000000000000DD020008E9
:100030000000000000000000BF0200088503000867
:100040000501000805010008050100080501000878
:100050000501000805010008050100080501000868
:100060000000000005010008050100080501000866
:100070000501000805010008050100080000000056
:100080000501000805010008000000000501000846
:100090000501000805010008050100080501000828
:1000A0000501000805010008050100080501000818
:1000B0000501000805010008000000000501000816
:1000C0000348854600F07AF800480047E503000839
:1000D000380600200C4880F308880C480168090E97
:1000E0000B4A914205D10B480B4901600B480C4962
:1000F00001600C4880470C480047FEE7FEE7FEE73A
:10010000FEE7FEE7FEE700003806002004000000DE
:100110001F00000018100240010000000000014014
:100120000000000089030008C100000870B5044603
:10013000002903D000202022012310E0002801D054
:100140000020C043C046C0460DE02546D5408D4244
:1001500005D30D469540641B1D4695404019154634
:10016000521E002DF1DC214670BD000070B5002547
:1001700004462E46002911D0002C01DA0125444204
:10018000002901DA012649422046FFF7CFFFB54298
:1001900000D04042002D00D0494270BD002C02DA50
:1001A0000121C90702E0002C00DD03490846C046D2
:1001B000C046214670BD0000FFFFFF7F064C0125B1
:1001C000064E05E0E36807CC2B430C3C98471034FF
:1001D000B442F7D3FFF778FFEC0F00080C100008CB
:1001E000F0B50A6800231C4614E003269E40076809
:1001F000B74307609D4007682F430760C568B54354
:10020000C560CD799D40C6682E43C6609B1C641CAA
:10021000102C1CD01546E540ED07F7D00D796E1E69
:10022000012EE2D803269E408768B74387604E7947
:100230009E408768374387600126A6408788B7437A
:1002400087808E79A640878837438780CDE7F0BDC9
:1002500001857047816170477047000010B5164CEA
:10026000022806D0012101280CD12046FFF7F0FF1B
:100270000BE004212046FFF7EDFF01212046FFF7A8
:10028000E9FF10BD2046FFF7E5FF04212046FFF7F8
:10029000DFFF10BD80B582B00121880400F010F8A6
:1002A000052000900348019003486946FFF798FF36
:1002B00002B080BD01030000000400487047704791
:1002C000054A002903D01168014311607047116885
:1002D000814311607047C04614100240704780B5DA
:1002E00000F002F880BD000070B582B000240194D7
:1002F00000942248021F11680123194311601568F8
:1003000002210D400095019D6D1C0195009D002D61
:1003100004D105252D03019EAE42F0D11568AD072D
:1003200001D4009400E00093009C012C23D1144CD4
:100330001125256004680460046804607F24E403D8
:100340000568A54305602124E4030568254305608D
:100350001B0614681C43146013689B01FCD50268DB
:1003600003239A43026002680A43026001680C2278
:100370000A40082AFAD102B070BDC04604100240FB
:10038000002002407047000080B513480268012138
:100390000A4302604268114B134043600268104BED
:1003A000134003608A040368934303603F221204EE
:1003B000436893434360C26A0F239A43C262FF2299
:1003C0005432036B93430363426B8A4342630021BD
:1003D0008160FFF784FF80BD001002400CB8FFF879
:1003E000FFFFF6FEFFF756FF00F07EFB00F0CAFBB2
:1003F00000F06EF900F072FBFFF730FFF6E7000047
:100400003F2009494862002008620846006A01212D
:100410000843054908620548C8610846C0690121CA
:1004200008430149C8617047000001400906000007
:10043000C100074A51580968C200054BD218137908
:1004400003229A401143C200014B9A581160704731
:100450001C0F00081B481C490978405CC0001B4960
:10046000085800681749184A1278895CC900174A69
:1004700089180A790321914088431249124A127857
:10048000895CC900114A515808600E480E49097824
:10049000405CC0001146085800680A490A4A1278B0
:1004A000895CC900094A89180A79012191400843E9
:1004B0000449054A1278895CC900044A5158086009
:1004C00070470000E00F00081F0000201C0F00080C
:1004D0000F4840690121490408430D494861084615
:1004E0004069012189040843094948610846406977
:1004F000012189050843064948610020C0430921BC
:10050000C906886003498860034988607047000015
:1005100000100240000400480014004810B50446D2
:100520000D4800680C2108430B4908602046FFF77E
:100530007FFF0A4840681821084308494860084678
:1005400000680121090608430449086000F008F822
:10055000204600F05BFC10BD000400480040024053
:10056000174880690121890408431549886168207A
:1005700014490883052013492031088000201149BF
:1005800048621049203108810F4810490978405CC1
:10059000401E0C49C8620C490C4A1278885CC10F95
:1005A00009184910074A51630948064940318880B3
:1005B0001046808A01210843114688827047000056
:1005C0000010024000480140270000202A000020BF
:1005D00001800000114880690121890408430F4906
:1005E000886168200E49088305200D492031088064
:1005F00000200B4948620A4920310881112008492E
:10060000C86209204863074805494031888004488A
:10061000808A012108430249888270470010024005
:100620000048014001800000034800884008400065
:10063000014908807047000000480140002004493B
:100640004862084600880121084301490880704734
:10065000004801400D48C069022108430B49C861A8
:100660000B48008840084000094908800948C862D2
:1006700000200749203108815020054908810120C8
:1006800008830349203108807047000000100240B1
:1006900000040040A08C000003480088400840008F
:1006A000014908807047000000040040002007490D
:1006B000486208460088012108430449088008462A
:1006C000808A012108430149888270470004004064
:1006D000F0B58BB0E748007800287DD0E648007878
:1006E000401CE549087000200190E2490870029022
:1006F0000120049000270026002599E16800DF49C9
:100700000968095A68468183808B002809DD6A469A
:10071000918BDB4A12781003FFF708FD6A4690833D
:1007200002E000206946888300240CE00C20684326
:10073000D449096840186100415A601C400007AA6A
:100740001152601CC4B2062CF0DBCB480078142890
:100750000CDA6846818BC08B814202DD6846818B52
:10076000C183002108A8C170C17148E16E20C2494F
:10077000087008A88178407A81427FDD002108A8AE
:10078000017181714171C078401CC1B208A8C1706B
:10079000C078BD490978884208DDBB48017808A8BF
:1007A000C170007A0121084308A9087208A8007ADC
:1007B00002210840002816D008A88078B34909789B
:1007C000884210D108A8C079401CC1B208A8C171E4
:1007D000C079AF49097800E049E1884203DDAC48BF
:1007E000007808A9C87108A88078A84909788842C3
:1007F0002BD1A6480078A7490978401A08A9497A58
:10080000884222DDA4490978A24A12785143084659
:100810000A21FFF7ABFC9D490978884215DA08A840
:10082000C079401CC1B208A8C171C0799849097843
:10083000884232DD08A8017A0220014308A801722B
:100840009348017808A8C17127E008A8C07900285A
:100850000DDD08A880788D49097888421DD008A848
:10086000C079401EC1B208A8C17116E006E008A90F
:10087000087A0221884308A908720EE008A8C07807
:10088000002806DD08A8C078401EC1B208A8C170C3
:1008900003E0002108A80172C17108A9487A89788B
:1008A000C20F12185210914203DD0198401CC0B2D1
:1008B0000190002108A881706846818BC08B81421D
:1008C00024DB6846818BC08B081A80B203900398A2
:1008D000FF2801DDFF2003900398C1B208A88170B2
:1008E0008078B04203DD069608A8867807E008A85D
:1008F00081780698814202DD08A88078069008A8D1
:100900004079401CC1B208A8417105E008A880796F
:10091000401CC1B208A881716846818B008C81425D
:1009200005DD6846818B008C081A059004E0684656
:10093000018C808B081A05906946088CC117090E36
:1009400009180A1205998A4204D2544A1278059964
:10095000914206D208A80079401CC1B208A80171D2
:1009600002E0002008A9087108A880794C4909789C
:10097000884208DD6846C08B401E81B26846C1834C
:10098000002108A8817108A8407946490978884261
:1009900008DD6846C08B401C81B26846C1830021D7
:1009A00008A841716846818BC08B814205DB08A88D
:1009B00000793D49097888420ADC6846818BC08B02
:1009C00081420BDA08A8007938490978884205DDA8
:1009D0006846818BC183002108A8017108A8007AAC
:1009E000C007C00F002801D004983F1808A8007A5B
:1009F00002210840002802D0681CC0B2029068465C
:100A0000818B018401240CE0600007A9095A0C20A5
:100A100068431C4A12688218601E40001152601C14
:100A2000C4B2072CF0DB049840000490681CC5B2E7
:100A30001F480078854200DA60E6144806701549C0
:100A4000069808701B49029808701B4807601B49EC
:100A500009780198884209DD002016490870164976
:100A600008600A49087012200349087000BF0BB0E3
:100A7000F0BD000014000020150000200000002040
:100A8000E40F000810000020E80F00081C00002000
:100A9000E90F00081D000020E70F000824000020D7
:100AA000DC0F0008DF0F0008DE0F0008DD0F000874
:100AB000E20F00081600002018000020E30F0008D5
:100AC000182800DB70470C224243034B1B68D218E6
:100AD000D17200BFF6E70000100000200148007846
:100AE000704700001600002010B51F48C0690121A2
:100AF000090708431C49C861084680690121084369
:100B000019498861FFF7E4FC00F0AAF9FFF762FDDC
:100B1000FFF7A0FDFFF774FC1120144908701220A4
:100B2000487013208870092011490870114909780C
:100B30000C225143084600F0BBF90F4908600D49EB
:100B40000978480000F0B4F90C490860002406E078
:100B50000B48015D2046FFF7B3FF601CC4B2054897
:100B600000788442F4DB10BD001002402700002012
:100B700025000020E20F00081000002000000020E7
:100B8000E50F0008FEB58D48008A022108400228C2
:100B900005D08B48C0694903084088427ED1874808
:100BA000008A02210840022803D18448406B84B2A5
:100BB00000E00024002C72DD824800780290824818
:100BC00006788248808A02218843804988820846C4
:100BD00000680C2188437D490860084600680421AC
:100BE00008437A490860FFF735FC77480078401CD5
:100BF0007549087008460078022801DD0020087059
:100C0000FFF712FDFFF748FD71484068182188433F
:100C10006F49486008460068C00EC0060860084674
:100C200040684008400048606A48C06A80B201904D
:100C300069480078401C6849087008460078674990
:100C40000978884205DA66495E4A1278885CFFF7BF
:100C500065FC0199491C2046FFF788FA84B2614877
:100C6000008800195F4908805F480088844204DDDD
:100C70005D480088201A87B203E05B480088001BAB
:100C800087B270005949085AB84204DD70000F520B
:100C9000700057490C525048007801E08BE084E026
:100CA0004E49097888427FDB4E4800885149884286
:100CB00009DA4A480078272805DA48480078C01C35
:100CC0004649087068E00020434908704848008899
:100CD00047494988884208DD4548008800904448D3
:100CE00040884349088000984880414840884049EE
:100CF0008988884208DD3E48408800903C488088CA
:100D00003B4948800098888039480088384949889C
:100D1000884207DD3648018802984000364A12684A
:100D2000115206E03248418802984000324A126867
:100D30001152002506E00020C04369002B4A5052A2
:100D4000681CC5B2032DF6DB0020264908801D482B
:100D50000078401C1B49087008460078274909782C
:100D6000884205DB002017490870012024490870DB
:100D7000144A12780C235A43224B1B68995A224A70
:100D800012781003FFF7D2F9174908800920134998
:100D9000087000200C49087011490A4A1278885CD2
:100DA00000E001E0FFF7BAFBFEBD0D49054A1278ED
:100DB000885CFFF7B3FB00BFF6E7000000040040CB
:100DC000000001401F0000202A000020000400480D
:100DD00000400240004801401E0000202500002085
:100DE000E00F000822000020200000200A00002060
:100DF00004000020B80B000000000020E20F0008F3
:100E00001400002010000020E40F000800B5024686
:100E100012480068012191400843104908600846C3
:100E20004068182188430D49486008464068012100
:100E300008430A49486008464068082108430749B2
:100E40004860012080F3108800BFFFF7F7FBFFF731
:100E50002DFC002080F3108800BF00BD0040024040
:100E600009484069012109060843074948610020F3
:100E700006490860012000060860084640681821FD
:100E80000843024948607047001002400040024099
:100E900002E008C8121F08C1002AFAD17047704743
:100EA000002001E001C1121F002AFBD170470000A1
:100EB000F0B50B30C108C900144F0026144A0FE0EA
:100EC00003688B420BD38B4205D95C1A43184568E3
:100ED00030C3083B00E04368136002C004E0021D19
:100EE00010680028ECD13046002803D1386800286B
:100EF00001D00020F0BD064A06481060064A121ACA
:100F0000D208D20044C001203860D7E7300000206A
:100F10002C0000203C000020380200200000004887
:100F2000000000000000004802000000000000482F
:100F30000400000000000048060000000000004817
:100F400008000000000000480A00000000000048FF
:100F50000C000000000000480E00000000040048E3
:100F600000000000000400480400000000040048E5
:100F700014000000000400481600000000040048AF
:100F800018000000000400481A0000000004004897
:100F90001C000000000400481E0000000000004883
:100FA000100000000000004812000000000000488F
:100FB0001400000000000048160000000000004877
:100FC00018000000000000481A000000001400484B
:100FD0000C000000001400480E00000032323232D3
:100FE0000A0B02085014141E04040000101000081C
:100FF0000000002038000000900E00084810000893
:101000003800002000060000A00E000800000000CC
:1010100000000000000000000000000000000000D0
:1010200000000000000000000000000000000000C0
:1010300000000000000000000000000000000000B0
:081040000000000000000000A8
:04000005080000C12E
:00000001FF
